:020000040800F2
:10000000F8AB01206D020008D95B0008BF3E000874
:10001000D9590008D50D0008D5740008000000006B
:10002000000000000000000000000000AD0100081A
:10003000311200080000000009020008DD6B000812
:10004000870200088702000887020008756300081D
:10005000870200088702000887020008870200085C
:10006000C113000887020008D113000887020008A6
:10007000870200088702000887020008870200083C
:1000800087020008870200088702000800000000BD
:10009000000000000000000000000000D71300086E
:1000A000870200089D6C000887020008870200088C
:1000B00087020008870200088702000887020008FC
:1000C00087020008870200088702000887020008EC
:1000D00087020008957400088702000800000000ED
:1000E000B113000887020008870200080000000022
:1000F000000000000000000000000000870200086F
:10010000000000008702000887020008870200083C
:1001100000000000000000000000000000000000DF
:100120008702000887020008BD1000088702000847
:10013000870200080000000000000000000000002E
:10014000000000000000000000000000870200081E
:10015000C910000887020008D510000887020008AF
:10016000870200088702000800000000000000006D
:10017000000000000000000000000000000000007F
:1001800000000000870200080000000000000000DE
:100190008702000887020008DFF80CD000F07CFB23
:1001A000004800471D490208F8AB01202C4B196894
:1001B0000868B0E8F04F80F30988BFF36F8F4FF005
:1001C000000080F3118870470000000008480068B4
:1001D000006880F308884FF0000080F3148862B64E
:1001E00061B6BFF34F8FBFF36F8F00DF00BF00BF5B
:1001F00008ED00E0DFF80C00016841F470010160D7
:10020000704700BF88ED00E0EFF30980BFF36F8F08
:10021000134B1A681EF0100F08BF20ED108A20E95A
:10022000F04F106009B44FF0500080F31188BFF315
:100230004F8FBFF36F8F2FF045FE4FF0000080F31C
:10024000118809BC19680868B0E8F04F1EF0100F5B
:1002500008BFB0EC108A80F30988BFF36F8F704736
:100260001C000020EFF3058070470000064880471F
:1002700006480047FEE7FEE7FEE7FEE7FEE7FEE78B
:10028000FEE7FEE7FEE7FEE78D6C00089901000837
:100290002DE9F05F0546002092469B4688460646BB
:1002A000814640241BE0284641464746224600F04E
:1002B00042FA53465A46C01A914110D31146184685
:1002C000224600F029FA2D1A67EB01084F46224614
:1002D0000120002100F020FA17EB00094E41201EFA
:1002E000A4F10104DFDC484631462A464346BDE816
:1002F000F09F00000649074A0868504343F239025C
:1003000010440860400870470149086070470000C9
:100310009C0900206D4EC64140EA01039B0703D0B3
:1003200009E008C9121F08C0042AFAD203E011F834
:10033000013B00F8013B521EF9D27047D2B201E0F6
:1003400000F8012B491EFBD270470022F6E710B5DA
:1003500013460A4604461946FFF7F0FF204610BD33
:10036000421C10F8011B0029FBD1801A704710B500
:10037000002200E0521C835C8C5CA34201D1002B64
:10038000F8D1D8B2E1B2401A10BD30B50446002011
:10039000034600E05B1C934203D2E05CCD5C401B53
:1003A000F8D030BD034611F8012B00F8012B002ACC
:1003B000F9D1184670472DE9FE4F804681EA0300C7
:1003C000C00F0C46009021F0004123F00045B8EB2F
:1003D0000200A94105D24046214690461C460B46E4
:1003E000024623F00040104347D0270DC7F30A0010
:1003F000C3F30A510290401A019040286BDAC3F30C
:10040000130040F4801B0098924620B10023D2EBE9
:10041000030A63EB0B0B01985946C0F140025046AA
:1004200000F07AF906460D4650465946019A00F00A
:1004300092F910EB08006141002487EA115284EA26
:10044000E7731A4340D0009A62B3019A012A4FEA37
:10045000075215DC001B61EB02014FF0004202EA7B
:100460000752CDE90042001C41F5801132462B466F
:1004700000F092F903B0BDE8F08F40462146F9E75D
:10048000001B61EB0201001C41F5801300185B4169
:100490002018A2F5001747EB030140EAD570B61902
:1004A0006D4111E06D084FEA360645EAC0754FEA26
:1004B0000752001B61EB0201001C41F58011490845
:1004C0004FEA30000019514132462B4603B0BDE8D7
:1004D000F04F00F052B90098012240000023D0EB09
:1004E000020263EBE073009821464FEAE074B8EB38
:1004F000000061EB0401E9E783F000435BE781F072
:10050000004158E72DE9FE4F81EA030404F000445E
:1005100021F0004100944FF0000B23F0004350EA1B
:1005200001045ED052EA03045BD0C3F30A54C1F362
:100530000A552C44A4F2F3340194A0FB0254C1F3F5
:10054000130141F48011C3F3130343F4801301FB3F
:10055000024400FB034E840A970A44EA815447EAA6
:100560008357A4FB076802958D0A05FB07854FEAB0
:10057000932C04FB0C542705029D4FEA065847EACA
:100580001637B5EB08056EEB070C870E920E47EA9F
:10059000811742EA8312A7FB0201B6EB0B0164EB61
:1005A00000042B0D43EA0C335E1844EB1C50DA4672
:1005B0005146E7FB0201C5F313044FEA0B3343EA4C
:1005C00014534FEA0432019C43EA0603A4F10C04DD
:1005D0000294009CCDE900B400F0DEF803B0BDE861
:1005E000F08F00200146F9E72DE9F04D81EA030480
:1005F00004F0004B21F0004514464FF0000A23F0B0
:10060000004150EA050220D054EA01021DD0C5F392
:100610000A570246C5F31303C1F31300C1F30A5688
:1006200040F4801543F48013A7EB0608101BD64650
:1006300008F2FD3873EB050002D308F1010801E070
:1006400092185B41B8F1000F03DA00200146BDE8C3
:10065000F08D00204FF48011064684460EE0171BF3
:1006600073EB050705D3121B63EB050306434CEA46
:10067000010C49084FEA300092185B4150EA01072B
:10068000EDD152EA030012D082EA040083EA0501A8
:10069000084305D0101BAB4106D20122002306E01F
:1006A00000224FF0004302E06FF0010253101AEBFA
:1006B00006004CEB085110EB0A0041EB0B01BDE8C2
:1006C000F04D00F05AB800F0004230F000400AD07F
:1006D000C10D01F56071C0F3160042EA0151C20874
:1006E00040071143704700200146704730B50B4664
:1006F000014600202022012409E021FA02F59D4252
:1007000005D303FA02F5491B04FA02F52844151E25
:10071000A2F10102F1DC30BD202A04DB203A00FA0C
:1007200002F1002070479140C2F1200320FA03F348
:10073000194390407047202A04DB203A21FA02F046
:100740000021704721FA02F3D040C2F1200291400B
:10075000084319467047202A06DBCB17203A41FA96
:1007600002F043EAE07306E041FA02F3D040C2F13E
:100770002002914008431946704710B5141E73F1CA
:10078000000408DA401C41F1000192185B411A4351
:1007900001D120F0010010BD2DE9F04D92469B469D
:1007A00011B1B1FA81F202E0B0FA80F22032904643
:1007B000FFF7B2FF04460F4640EA0A0041EA0B0188
:1007C00053465A46084313D0114653EA010019D044
:1007D000C8F140025046FFF7AEFF05460E465046B0
:1007E00059464246FFF798FF084305D0012004E030
:1007F00020463946BDE8F08D0020054346EAE07604
:100800002C4337430A986305E40AA0EB0800002252
:10081000FD0A44EA47540A3002D500200146E9E7C0
:10082000010510196941DDE9084500196941BDE874
:10083000F04DA2E7C1F30A52C1F3130140F2FF33B6
:1008400041F480119A4202DA00200146704740F2DA
:1008500033439A42A2F2334202DC5242FFF76BBFAB
:10086000FFF75ABF30B5041E71F1000404DB4FF0EE
:100870000044404264EB0101141E73F1000405DBE7
:100880001C464FF00043524263EB0403994208BFF9
:10089000904230BD00207047064C074D06E0E068EE
:1008A00040F0010394E8070098471034AC42F6D3B7
:1008B000FFF776FCAC140608CC14060870B58C184B
:1008C00010F8015B15F0070301D110F8013B2A1164
:1008D00006D110F8012B03E010F8016B01F8016B51
:1008E0005B1EF9D12B0705D40023521E0DD401F84D
:1008F000013BFAE710F8013BCB1A921C03E013F816
:10090000015B01F8015B521EF9D5A142D8D300204A
:1009100070BD0000464910B54A6822F440324A6072
:100920004A6843681A434A6001684A6822F4807240
:100930004A6001684A68036942EA03224A60016822
:100940004A6822F040724A6001684A6883681A4324
:100950004A6001688A6822F400628A6001688A68D5
:10096000C3681A438A60816A6FF07062D14201687D
:100970008A6822F070628A6001688A680CD0836A93
:100980001A438A6001688A6822F040528A600168CE
:100990008A68C36A1A4301E022F040528A60016803
:1009A0008A6822F002028A6001688A68037E42EA4D
:1009B00043028A6090F82010002901684A680FD02D
:1009C00042F400624A6001684A6822F460424A6068
:1009D00001684A68174C436A04EB43331A4301E049
:1009E00022F400624A600168CA6A22F47002CA6294
:1009F0000168CA6A838B104C04EB03531A43CA6222
:100A000001688A6822F400728A6001688A6890F836
:100A1000303042EA43228A6001688A6822F48062A8
:100A20008A6001688A68406942EA8020886010BD57
:100A30000023014000E0FFFF0000F0FF094808B577
:100A4000016841F002010160006800F002000090BE
:100A5000054803F02CFC28200BF074FE00F0AAF8E7
:100A6000002008BD303802409C0000202DE9F05FD6
:100A700082468B46052400254C4803F0B5FC7021C6
:100A80004A4803F06DFC494803F0ECFCAC214748B0
:100A900003F066FC454803F0E5FC3321434803F0CE
:100AA0005FFC424803F0DEFC0021404803F058FCA4
:100AB0003E4803F0D7FC3D4803F0B5FC50200BF056
:100AC00041FE06E005200BF03DFE641EE4B200F09E
:100AD00071F800F06FF8C00702D0002CF2D162E08C
:100AE000002C60D0314803F07FFC71212F4803F0C7
:100AF00037FC2E4803F0B6FC2C4803F0F2FB2B48E1
:100B000003F016FC294803F0ECFB8146274803F06C
:100B10000FFC264803F0E5FB8046244803F008FC60
:100B2000224803F0DEFB0746204803F001FC1F4883
:100B300003F0D7FB06461D4803F0FAFB1B4803F001
:100B4000D0FB0446194803F037FC184803F06BFC4F
:100B500045EA090548EA052147EA012108094FF459
:100B60007A714843000D00EE100A380746EA10512A
:100B7000F8EE400AB2EE040A44EA01204FF4FA61AA
:100B800080EE801A48430A4901EB105000EE900AAB
:100B90000020F8EE600A8AED001A80EE801A8BEDD4
:100BA000001ABDE8F09F0120FBE700009C00002038
:100BB0000CFEFFFF10B50B4803F016FC712109482D
:100BC00003F0CEFB074803F04DFC064803F089FB19
:100BD0000446044803F0F0FB024803F024FC2046DE
:100BE00010BD00009C00002010B505F0E9FA9FED53
:100BF000091AF0EE400A80EE810ADFED070A07F0DD
:100C00002DF8F7EE000A30EEC00ADFED040A20EE00
:100C1000200A10BD80E6C54701DE423E002A2D476E
:100C20002DE9F0411D462DED068B14460E46074674
:100C30009DED0D8ADDED0C8A11FB06F012FB040020
:100C400000EE100AB8EEC00A07F002FCF0EE400A0F
:100C500000EE107AB8EEC00A06F080FDF0EE409A81
:100C600017FB07F014FB040000EE100AB8EEC00AF0
:100C700007F0EEFBF0EE400A00EE106AB8EEC00A94
:100C800006F06CFDB0EE409A06F040FFF8EEE80A80
:100C900060EE208AB0EE490A07F012FBF0EE400A3F
:100CA00000EE105AB8EEC00A20EE80AAB0EE690A33
:100CB00007F006FB4AEE008AB0EE690A06F026FF4E
:100CC000F8EEC80A20EE20AAB0EE490A07F0F8FABA
:100CD0004AEE408AB0EE690A06F018FFF0EE400ACC
:100CE00000EE105AB8EEC00A20EE809AB0EE690A03
:100CF00007F0E6FAF8EEC80A00EE809AB0EE680A4D
:100D0000F0EE490A06F02AFDDFED030ABDEC068B82
:100D100020EE200ABDE8F081E22E6542064882B04E
:100D2000016841F001010160006800F001000090DD
:100D3000024802B003F0BBBA30380240A8000020DD
:100D400008B50B46009202465021024803F0B4FB5E
:100D500008BD0000A800002008B50B46009202461E
:100D60005021024803F01AFC08BD0000A800002032
:100D700070B500252C46144800F086FD0521124868
:100D800000F02CFD104800F0CBFC05440E4800F0AC
:100D9000E1FD01200BF0D6FC641CE4B2102CEAD378
:100DA000280900EE100AF0EE000A0848B8EE400AE2
:100DB00020EE200AD0ED010A20EE200ADFED040A21
:100DC00020EE200A70BD0000A80900200C010020C0
:100DD00000008039FEE7000030B587B01421684676
:100DE000FFF7B3FA1348016841F00201016001689E
:100DF00001F002010591016841F001010160006804
:100E00004FF4004400F0010005900120CDE90040BE
:100E100002900320084D03906946284601F06CF8C3
:100E200001222146284601F064F9044803F03FFA04
:100E300007B030BD303802400000024044010020BD
:100E4000022000F021B800001CB501A80090042386
:100E5000032215210B4803F02FFB9DF804109DF889
:100E6000050001F00F0140EA012106480838016041
:100E70009DF806209DF8071002F00F0241EA0221BA
:100E800041601CBD4401002002461521014803F0C9
:100E900057BB0000440100200B46024615210148C3
:100EA00003F0B0BB4401002070B50A4D4FF400447C
:100EB00000222146284601F01CF90A2000F066FFB6
:100EC00001222146284601F014F9BDE87040642053
:100ED00000F05CBF000002400321E520FFF7DCBF0B
:100EE000FFF7E2BF00B50B4602464979581E085C81
:100EF0002B2806D02D280ED02A2816D02F281ED019
:100F000026E0107D02EB800010ED020A50ED010A90
:100F100070EE200A1CE0107D02EB800010ED020A4A
:100F200050ED010A70EE600A12E0107D02EB8000C5
:100F300010ED020A50ED010A60EE200A08E0107D73
:100F400002EB800010ED020A10ED011AC0EE010A5A
:100F5000104604F04FFE104604F04CFEB0EE600A5E
:100F6000104604F059FE18465DF804EB05F009BE82
:100F7000DFF870901C4EFF254FF0000899F8001024
:100F800031B11A4A0120A2F8008089F8008030703F
:100F9000307810B186F80080FF2500F07DF8044617
:100FA000062025F007F800F077F80746062025F020
:100FB00001F800F071F8BC4201D0844201D1204612
:100FC00005E0874201D1384601E000F065F8FF2DC9
:100FD00001D0A84202D005460AF0FEFDC82024F048
:100FE000E9FFCBE7060000209C0700209E070020B9
:100FF0007FB504F02DFF80681E49884236D11E4D12
:1010000002A8296888471D489DF80D20194C0178D1
:101010008A4208D002701AA1684606F067FB69464A
:1010200060691CF0CBFA18489DF80C2001788A42C0
:1010300008D0027012A1684606F058FB6946206984
:101040001CF0BCFAA86A8047104D01462870401E6B
:1010500063280CD8606815F026FB2A780CA1684636
:1010600006F044FB6946E0681CF0A8FA7FBD00204A
:1010700028707FBD7802002050010020D10400209C
:101080002530326400000000D0040020D504002088
:10109000253264252500000010B50421034801F025
:1010A0001BF8012800D0002010BD00000000024005
:1010B00001490120087070479C070020014800F09A
:1010C000F3BC0000680A0020014800F0EDBC0000FD
:1010D000580B0020014800F0E7BC0000B80B0020CE
:1010E00001681823CAB2103AB2FBF3F2054B6FF352
:1010F0000901032A9B5CC36500D9091D8165084667
:1011000070470000700C030810B5014600208B6981
:101110008A6A4FF0C07453B1B3F5005F15D072B155
:10112000012A0CD0022A0AD0032A09D104E01AB1FC
:10113000012A06D0022A03D1C96AC90100D50120BB
:1011400010BDC96AA142FAD010BD002AF7D0012A09
:10115000F2D0022AF3D0032AF3D010BD30B50468D0
:10116000256825F480252560046863608368402B2A
:10117000036803D099600068C26030BD9A6000685F
:10118000C16030BD0EB5264E264C00258DF80850A6
:101190000123002202A9306824F048FF78BB94F8AC
:1011A00035008DF8000020480222102100788DF8CB
:1011B0000100684605F0BBFB002201A91B4801F0B5
:1011C0009DFC03222021684605F09CFB9DF8000051
:1011D0009DF80610884216D094F8300010B9A16C22
:1011E000002088479DF806008DF800008DF8025019
:1011F0008DF8015003222021684605F098FB6420F9
:1012000024F0D8FEC2E7606C80479DF806108DF888
:1012100000108DF80200000A8DF80100EAE70000D6
:10122000F0070020500100204C030020F0090020AE
:10123000704708B50A200BF085FA6A4602210020A3
:10124000FFF77EFD9DF80000552803D19DF80100B1
:10125000AA2821D055208DF80000AA208DF8010081
:101260000A200BF06FFA6A4602210020FFF774FD96
:10127000002000900A200BF065FA6A460221002047
:10128000FFF75EFD9DF80000552803D19DF8010091
:10129000AA2801D0012008BD002008BDFFF73EBDEF
:1012A00010B5292000F00CF84FF6FF7101EA002478
:1012B000282000F005F8204310BD0020AFF3008087
:1012C00002462421014803F03BB90000B40000208D
:1012D0000B4602462421014803F094B9B4000020D3
:1012E00010B5052404E0642000F050FD641EE4B253
:1012F000FFF7E3FF362802D0002CF4D106E02CB132
:1013000000210120FFF7E4FF002010BD012010BDE7
:1013100010B5052404E0642000F038FD641EE4B23A
:10132000FFF7CBFF362802D0002CF4D106E02CB119
:1013300008210120FFF7CCFF002010BD012010BDC7
:1013400038B519480524016841F0020101600068C0
:1013500000F002000090154802F0A9FF04E06420AC
:1013600000F014FD641EE4B2FFF7A7FF362802D098
:10137000002CF4D116E0ACB100210120FFF7A8FF4A
:1013800000210820FFF7A4FF7F210A20FFF7A0FF1C
:1013900047210D20FFF79CFF00210E20FFF798FF4B
:1013A000002038BD012038BD30380240B400002094
:1013B000024901204870000300F092BD04000020A3
:1013C000024901208870042000F08ABD040000203A
:1013D000102000F085BD202000F082BD7CB50F4CB0
:1013E0000F4DB4F862005A3400EB8000400001B2A7
:1013F000A8681AF057FF22890AA1684606F076F914
:10140000694628691CF0DAF8228807A1684606F0C8
:101410006DF96946E8691CF0D1F87CBD50010020E7
:10142000A40200203A2564003A25646D0000000003
:101430007CB5104C104D002214F84D1F686815F053
:101440008EFB61780022A86815F089FB22780BA139
:10145000684606F04BF96946E8681CF0AFF8627818
:1014600006A1684606F042F9694628691CF0A6F80C
:101470007CBD000050010020E40300202564000032
:1014800072B6FEE72DE9F0411A4F002507F124005E
:101490003D803C4687F8745014210646FEF755FF00
:1014A00015A0606314A0A06413A0E06513A02067DA
:1014B0000020A41C002104EBC00200BF22F8115040
:1014C000491CC9B20429F9D3401CC0B20428F1D385
:1014D000204609F0B3FC204609F0B0FCB91C3046A8
:1014E0002EF0D2F9064831468068BDE8F04115F08B
:1014F0000FBF0000007A00200A000000000000007A
:101500000C040020054900200A5C0AB10020704745
:10151000401C80B21028F7D301207047787A002051
:1015200010B500200F4A01461154401CC0B21128CA
:10153000FAD300201318401CC0B283F8641010289E
:10154000F8D3FF2002F8740F1021507008220548CC
:1015500014F00EFB0349BDE8104001F114002EF019
:101560006FB90000787A002070B5022005F02AF8E3
:101570000546012005F026F80446002005F022F873
:1015800044EA002145EA0120010201D540F07F40F4
:1015900070BD70B5052005F015F80546042005F06E
:1015A00011F80446032005F00DF844EA002145EA4D
:1015B0000120010201D540F07F4070BD78B50024C4
:1015C000009490F83C20012A19D0012280F83C2098
:1015D0000A6807230568092A13D9EE680A3A02EB5C
:1015E000420293409E43EE600B788A680A3B03EB0D
:1015F00043039A400368DD682A43DA6010E0022062
:1016000078BD2E6902EB420293409E432E610B7817
:101610008A6803EB43039A4003681D692A431A61F1
:101620004A681F23072A13D205686E6B521E02EB0D
:10163000820293409E436E630A8893B20A79521ED7
:1016400002EB820293400268556B2B43536327E001
:1016500005680D2A12D22E6BD21F02EB8202934034
:101660009E432E630B790A88DB1F92B203EB830340
:101670009A4003681D6B2A431A6311E0EE6A0D3A23
:1016800002EB820293409E43EE620B790A880D3B87
:1016900092B203EB83039A400368DD6A2A43DA625D
:1016A0001B4B0568194A9D420AD10D68122D07D1BE
:1016B000556825F400055560556845F4800555606A
:1016C00005689D421DD1134D0B68AB4201D0112B13
:1016D00017D1536823F480035360536843F4000325
:1016E00053600968A9420CD10B490C4A0968B1FB47
:1016F000F2F101EB8101490000E0491E009100294F
:10170000FBD180F83C40002078BD00000023014060
:1017100000200140120000101800002040420F007D
:101720000068C06C704770B504004FF0000503D02E
:10173000206C002610B107E0012070BD204600F0AB
:101740001DF8666484F83C60206CC00610D4206CE0
:1017500020F4885040F0020020642046FFF7DAF8B9
:101760006664206C20F0020040F00100206400E07C
:10177000012584F83C60284670BD000010B586B095
:10178000044614216846FEF7E0FD114920688842AE
:101790001CD110480021026842F480720260006887
:1017A00000F4807005900B481438026842F0010282
:1017B0000260006800F00100059002200090032004
:1017C000CDE901016946044800F096FB06B010BD62
:1017D0000020014044380240000002402DE9F04161
:1017E000044600680D4681684FF0000749050BD597
:1017F0008068C00508D5206C40F02000206484F883
:101800003C700120BDE8F08100F078FC064613E052
:10181000681C11D025B100F071FC801BA8420BD9C7
:1018200020680068800707D4206C40F00400206422
:1018300084F83C700320E5E7206800688007E7D55E
:1018400021686FF012000860206C40F40070206482
:101850002068816811F0405F13D1217E89B9C16A87
:1018600011F4700F02D0806840050AD4206C20F477
:1018700080702064206CC00403D4206C40F0010010
:1018800020640020BEE7000018B50021009190F808
:101890003C20012A07D0012280F83C20026893688E
:1018A000DB0702D011E0022018BD936843F001036A
:1018B0009360244A244B1268B2FBF3F202EB42021B
:1018C00000E0521E0092002AFBD102689368DB07F9
:1018D0002ED0036C40F20164A34343F4807303648D
:1018E00053685B0505D5036C23F4005343F4805320
:1018F0000364036CDB0404D5436C23F006034364E8
:1019000000E0416480F83C1010496FF0220313603E
:1019100049680068C90602D00D49884210D1816823
:1019200011F0405F0CD1816841F08041816007E097
:10193000016C41F010010164416C41F0010141640E
:10194000002018BD1800002040420F000023014075
:101950000020014090F83C1001290CD0012180F8B2
:101960003C1001688A6822F001028A600168896877
:10197000C90702D007E002207047016C21F48851AA
:1019800041F001010164002180F83C1008467047D5
:101990002DE9F0410446876D00F0B0FB064694F84F
:1019A00035000025022806D08020606584F8345078
:1019B0000120BDE8F0812068016821F01601016076
:1019C0002068416921F080014161206C08B9A06C58
:1019D00020B12068016821F00801016020680168D9
:1019E00021F0010101600CE000F088FB801B05285C
:1019F00007D920206065032084F8350084F834502E
:101A0000D7E720680068C007EED194F85C103F204B
:101A10008840B860012084F8350084F834500020F4
:101A2000C7E790F83510022903D0802141650120D5
:101A30007047052180F835100068016821F0010128
:101A400001600020704770B504002BD094F8350079
:101A5000022826D02068016821F001010160206879
:101A60000025056020684560206885602068C560A5
:101A7000206805612168212048612046FFF730FB7E
:101A8000E56325646564A564E564256594F85C20D8
:101A90003F2191408160656584F8355084F8345069
:101AA000002070BD012070BD2DE9F84304464FF0C1
:101AB0000009CDF8009063484FF41651A56D0068F9
:101AC000B0FBF1F72E6894F85C10082000FA01F1E1
:101AD00031420FD021680A6852070BD50A6822F0FC
:101AE00004020A6094F85C108840A860606D40F0C1
:101AF0000100606594F85C104FF0010808FA01F0ED
:101B0000304208D021684969090604D5A860606D93
:101B100040F00200606594F85C1004208840304278
:101B200008D021680968890704D5A860606D40F075
:101B30000400606594F85C1010208840304218D092
:101B400021680968090714D5A8602068016849035D
:101B500004D50068000308D5A16C07E00168C90539
:101B600003D4016821F008010160216C09B120460D
:101B7000884794F85C1020208840304231D021689A
:101B80000968C9062DD5A86094F835000528206895
:101B9000016806D0490347D5006800031DD4616C75
:101BA0001CE021F0160101602068416921F08001EC
:101BB0004161206C08B9A06C20B12068016821F057
:101BC0000801016094F85C103F208840A86084F808
:101BD000358084F83490216D1FE0E16B09B1204617
:101BE0008847606D00282BD0606DC00714D0052099
:101BF00084F835002068016821F001010160009837
:101C0000401C0090B84203D820680068C007F6D195
:101C100084F8358084F83490E16C002910D001B04C
:101C20002046BDE8F04308470168C905D5D40168DE
:101C300021F01001016084F8358084F83490CCE7FD
:101C4000BDE8F883180000202DE9F041044600F0BB
:101C500055FA06465CB1022084F83500002584F868
:101C600034502068016821F0010101600DE001207D
:101C7000BDE8F08100F042FA801B052805D920203C
:101C80006065032084F83500F2E720680068C0072B
:101C9000F0D12268116820480140D4E901031843BB
:101CA000D4E903363343184363691843A3691843DF
:101CB000E3691843236A18430843616A042903D17E
:101CC000D4E90B1319430843106020684069666A21
:101CD00020F0070130460E43012704280CD1A06AEA
:101CE0000643E06A40B12046FFF70EFA20B14020DB
:101CF000606584F83570BAE7206846612046FFF7D2
:101D0000EFF994F85C203F2191408160656584F88B
:101D100035700020ACE700003F8010F02DE9F04165
:101D20000446866D90F83400002501280DD001206E
:101D300084F8340094F835700020012F07D084F81F
:101D4000340002252846BDE8F0810220FBE7022787
:101D500084F8357060652046FFF700FA94F85C104F
:101D60003F208840B0602068016841F016010160A2
:101D7000206C20B12068016841F0080101602068F2
:101D8000016841F001010160DCE7000070B5044624
:101D900000F0B4F90546601C02D004480078044401
:101DA00000F0ACF9401BA042FAD370BD0C0000203B
:101DB0002DE9F04F0022DFF808B101264FF00F099E
:101DC00006FA02F401EA0403A34274D122F00307E5
:101DD0005F44D7F8088895074FEA157C09FA0CFA92
:101DE0000AEA0805DFF8DC80404502D14FF0000820
:101DF0001DE0DFF8D480404502D14FF0010816E025
:101E0000DFF8C880404502D14FF002080FE0DFF84C
:101E1000C080404502D14FF0030808E0DFF8B480ED
:101E2000404502D14FF0040801E04FF0070808FADE
:101E30000CF8A84522D1284DD5F800C02CEA030C97
:101E4000C5F800C02D1DD5F800C02CEA030CC5F85C
:101E500000C0214D0C35D5F800C02CEA030CC5F8A4
:101E600000C02D1FD5F800C02CEA030CC5F800C037
:101E7000D7F8085825EA0A05C7F808580568570032
:101E80000323BB409D430560D50800EB8505D5F8CD
:101E900020C057074FEAD76809FA08F72CEA070C61
:101EA000C5F820C0C5689D43C5604568A543456029
:101EB00084689C438460521C102A81D3BDE8F08F53
:101EC00000300140000002400004024000080240CF
:101ED000000C024000100240003C0140704700002E
:101EE000044910B50A68024202D00860FFF7F6FF05
:101EF00010BD0000143C01402DE9F84FDFF8B8A1F7
:101F00000022012403254FF00F090AF1040BAAF166
:101F1000040E00BF0B6804FA02F63340B34273D1DB
:101F20000F7907F00307012F01D0022F16D1876820
:101F30004FEA420805FA08FC27EA0C07D1F80CC062
:101F40000CFA08FC4CEA070CC0F808C04768B74315
:101F50000E79C6F3001696403E4346600E79F6436E
:101F6000B6070DD0C768560005FA06FC27EA0C072D
:101F7000D1F808C00CFA06FC4CEA070CC0F80CC0FB
:101F80000E7906F00306022E10D1D60800EB860863
:101F9000D8F8206057074FEAD76C09FA0CF7BE4310
:101FA0000F6907FA0CF73743C8F8207006684FEA44
:101FB000420C05FA0CF7BE430F7907F0030707FA46
:101FC0000CF7374307604E6816F4403F6DD03B4E28
:101FD000376847F480473760366822F0030706F415
:101FE00080460096364E07EB060CDCF8086897072B
:101FF0003F0F09FA07F826EA0806DFF8C8804045CF
:1020000003D14FF000081EE04FE0DFF8BC804045F0
:1020100002D14FF0010816E0DFF8B080404502D150
:102020004FF002080FE0DFF8A880404502D14FF0E2
:10203000030808E0DFF89C80404502D14FF0040817
:1020400001E04FF0070808FA07F848EA0608CCF85C
:102050000888DAF800605746D1F804C09E435FEA6A
:10206000CC2C00D51E433E60DBF800605F46D1F803
:1020700004C09E435FEA8C2C00D51E433E60DEF810
:1020800000607746D1F804C09E435FEA8C3C00D5DF
:102090001E433E60084F083F3E68D1F804C09E438F
:1020A0005FEACC3C00D51E433E60521C102AFFF470
:1020B00031AFBDE8F88F0000083C014044380240D1
:1020C00000300140000002400004024000080240CD
:1020D000000C0240001002400069084000D00120BE
:1020E0007047426921EA02030A4043EA02418161E2
:1020F00070470AB1816170470904FBE701488068B5
:10210000704700000C0000200248816802781144EA
:10211000816070470C0000200B4810B5016841F445
:1021200000710160016841F480610160016841F45F
:1021300080710160032000F0A9F80F2000F006F87C
:1021400000F04AF8002010BD003C024030B50546C2
:102150001C4887B00024016841F00101016000685B
:1021600006A900F00100009001A800F003FA00F0B9
:1021700031FA1549154AB0FBF1F11548491E0260C4
:1021800040F2E732C0E90324C0E90114846101F0A0
:102190006BF8040012D10E4801F094F804000DD140
:1021A000192000F046F8102D07D2002229461920E8
:1021B00000F04CF80748056000E0012407B0204615
:1021C00030BD00004438024040420F000000014092
:1021D000340C0020100000200C4882B0016841F44B
:1021E00080410160006800F4804000900748001FB3
:1021F000016841F0805101600068002200F08050C9
:1022000000900F21901E02B000F020B84438024028
:1022100000280DDB00F01F020121914040098000E1
:1022200000F1E020C0F88011BFF34F8FBFF36F8F34
:102230007047002809DB00F01F020121914040098E
:10224000800000F1E020C0F800117047F0B40E4BA0
:102250001B680C46C3F30223C3F10705042D00D904
:102260000425191D072901D2002300E0DB1E0126E9
:1022700006FA05F1491E214099409E40761E1640FF
:102280003143F0BC05F059BA0CED00E0064900F00E
:10229000070208684FF6FF03184040EA0220034A8D
:1022A00010430860704700000CED00E00000FA05E4
:1022B0000C4A136823F00303034313600A480268BF
:1022C00042F004020260012909D0032901D040BF75
:1022D00020BF20BF016821F004010160704730BFBA
:1022E000F8E700000070004010ED00E02DE9F84331
:1022F000044600684FF00109C1074FF0000601D104
:10230000400729D5DFF82081C8F86860FFF7F6FE9E
:102310000746464D05E000BFFFF7F0FEC01B022850
:1023200059D828680001F7D4A068217B800140EAD1
:102330000170616808433D4984310860C8F86890BD
:10234000FFF7DCFE074604E0FFF7D8FEC01B0228BB
:1023500041D828680001F7D52078800752D5334846
:102360004030016841F0805101600068304D00F05C
:1023700080500090286840F480702860FFF7BEFE0F
:10238000074604E0FFF7BAFEC01B022823D82868DE
:10239000C005F7D5254D7035286810F4407020D061
:1023A000218A01F4407181421BD02868214920F420
:1023B0004070C1F800900E6028602868C00710D0F7
:1023C000FFF79CFE064641F2883707E0FFF796FECE
:1023D000801BB84202D90320BDE8F8832868800733
:1023E000F4D521691148C1F301220830032A12D023
:1023F000016821F4F81101602868218AC1F30B01FA
:10240000084328602078000703D50B49207DC1F8D8
:10241000E0010020E0E70268084B22F4F8121940BE
:102420000A430260E8E7000000004742003802402B
:1024300000700040400E474200104742FFFCFF0F73
:102440002DE9F0470E46050065D0DFF81481D8F875
:102450000000F7B200F00700B04207D288F8007021
:10246000D8F8000000F00700B04254D128683D4C75
:10247000810712D5400703D5206840F4E050206062
:102480002878000703D5206840F460402060206869
:10249000A96820F0F000084320602878C0072DD0FC
:1024A000304968680839012812D0022813D003285F
:1024B00011D00968890700292DDA216821F003016C
:1024C00001432160FFF71AFE814641F2883A0EE08F
:1024D00009688903EFE709688901ECE7FFF70EFE59
:1024E000A0EB0901514502D90320BDE8F08720681F
:1024F000696800F00C00B0EB810FEFD1D8F8001044
:10250000404601F00701B14207D90770006800F0AA
:102510000700B04201D00120E7E72878400705D541
:102520002068E96820F4E05008432060287800071C
:1025300006D52068296920F4604040EAC100206087
:1025400000F058F82168084AC1F30311515CC840F3
:102550000649086006480068FFF7F8FD0020C4E758
:10256000003C024008380240780C030818000020A4
:10257000100000200F2202600C4A136803F00303CE
:102580004360136803F0F0038360136803F4E053BF
:10259000C36012684FF4E05303EAD20202610448B8
:1025A000006800F00700086070470000083802402B
:1025B000003C02400448054900680968044AC1F328
:1025C0008221515CC8407047180000200838024042
:1025D000880C03080448054900680968044AC1F3E7
:1025E0004231515CC8407047180000200838024052
:1025F000880C0308154810B5006810F00C02144848
:1026000013D01449042A0FD0082A0ED10F4C241FCE
:102610002268236802F03F025B0207D52068C0F3FE
:102620008810A0FB010106E0084610BD2168C1F337
:102630008811A1FB00010023FDF72AFE2168C1F3E8
:102640000141491C4900B0FBF1F010BD08380240BF
:102650000024F40040787D012DE9F84F04006ED08D
:102660002078DFF84C93C007A9F104054AD009F19E
:1026700004000168C1F38101012908D00068C0F39A
:10268000810002280AD1D9F80000400206D5286846
:10269000800337D560680028E1D033E06068B0F58A
:1026A000803F10D0B0F5A02F286810D020F48030E3
:1026B0002860286820F4802028606068A8B1FFF7AF
:1026C0001DFD06460DE0286840F48030F4E740F434
:1026D00080202860F7E700BFFFF710FD801B64280B
:1026E00073D828688003F7D50CE0FFF707FD06468E
:1026F00005E000BFFFF702FD801B6428F0D82868C2
:102700008003F7D42078DFF8AC8280074FF0000A0E
:102710003ED5A748001D016811F00C0F08D00068D5
:10272000C0F3810002280BD1D9F80000400207D481
:102730002868800716D5E068012800D112E033E14F
:10274000E068B8B10120C8F80000FFF7D7FC0646E2
:1027500005E000BFFFF7D2FC801B0228C0D8286824
:102760008007F7D52868216920F0F80040EAC10009
:1027700028600DE0C8F800A0FFF7C0FC064604E0A2
:10278000FFF7BCFC801B02281FD828688007F7D4FD
:102790002078000722D5864F87486169703771B16C
:1027A00001210160FFF7AAFC064604E0FFF7A6FC42
:1027B000801B022809D838688007F7D50EE0C0F8DA
:1027C00000A0FFF79BFC064605E082E0FFF796FCC1
:1027D000801B02287DD838688007F7D4207840070E
:1027E00068D5DFF8CCB100270BF13C0BDBF800001B
:1027F000C0000BD4DBF8001041F08051CBF8001082
:10280000DBF80000012700F0805000906B4E30682C
:10281000C00510D4306840F480703060FFF76EFC63
:10282000009005E0FFF76AFC0099401A022850D892
:102830003068C005F6D55E4EA0686C3601280FD012
:102840000528306810D020F001003060306820F09A
:1028500004003060A068B8B1FFF750FC00900FE0B2
:10286000306840F00100F4E740F004003060F7E722
:10287000FFF744FC0099411A41F28830814266D842
:1028800030688007F4D50EE0FFF738FC009007E0D1
:10289000FFF734FC0099411A41F28830814256D842
:1028A00030688007F4D42FB1DBF8001021F080519C
:1028B000CBF80010A069C8B33D49091D0968C1F3F0
:1028C000810102294AD00228504607D0C8F860008A
:1028D00000E03CE0FFF712FC04463BE04746C8F846
:1028E0006000FFF70BFC064605E000BFFFF706FCA3
:1028F000801B02282BD828688001F7D4D4E907016F
:102900000843A16A2E4A490802EB0141626A41EA82
:102910008211084394F82C1040EA0161C9F80010B4
:1029200001203866FFF7EAFB044606E03EE000BF00
:10293000FFF7E4FB001B022809D828688001F7D5BF
:1029400034E000BFFFF7DAFB001B022802D90320A6
:10295000BDE8F88F28688001F4D427E00128F7D07B
:10296000D9F80000E26900F4800191421CD1226A8A
:1029700000F03F01914217D147F6C071626A0140F1
:10298000B1EB821F10D1A26A4FF0FF3300F4403147
:1029900003EB5202B1EB024F06D194F82C1000F079
:1029A0007060B0EB016F01D00120D1E70020CFE7CC
:1029B0000438024000004742800E47420070004049
:1029C0000000FFFF2DE9F84389463D494FF4FA4CDA
:1029D0004FF47A730F68B7FBFCF159430091017F04
:1029E000012965D001250577022141770368CA21B5
:1029F000596203685321596201688B684FF0FF04E4
:102A00005FEA43584FF000034FF003060CD500BFB8
:102A1000DDF80080B8F10108CDF800804AD0D1F887
:102A20000C805FEA4878F3D4D1F8088028F48068F5
:102A3000C1F808800168D1F80C8008F0800868F4BB
:102A40009068C1F80C80B7FBFCF14FF47A777943BA
:102A500000910168009F7F1E00972BD0CF687F07F1
:102A6000F8D58E6826F007068E6001688E681643DA
:102A70008E600268C2F8149012490A6842F480021B
:102A80000A60104908310A6842F480020A6001684D
:102A90008A6842F480428A6001688A6842F48062EF
:102AA0008A6001684C62457703770020BDE8F883AF
:102AB0000220FBE74C62467703770320F6E700002D
:102AC00018000020003C01407047000010B50A4982
:102AD00004464FF4800008602068C168490508D5A5
:102AE000C16801F0800161F49061C1602046FFF788
:102AF000EBFF0120607710BD143C014010B5006869
:102B00000B4641680D480140080CD870C1F30424FD
:102B10005C7001F03F049C70C1F34231197052B9EE
:102B200003F0A4FBD870587803F0A0FB5870987895
:102B300003F09CFB9870002010BD00003FFFFF00D9
:102B400010B50B460168896A596001680969C1F3CB
:102B50000E019960006801680D480140C1F305400D
:102B60001870C1F306245C7001F07F049C70890D1D
:102B7000D97052B903F07AFB1870587803F076FBDD
:102B80005870987803F072FB9870002010BD000018
:102B90007F7F7F0010B5040002D0607F10B106E097
:102BA000012010BD00202077204600F041F80220CF
:102BB00060772068C168C943C90632D5CA2141621D
:102BC000216853204862204603F064FB20BB206844
:102BD0008168164A114081602168886862681043E4
:102BE000D4E904231A43104388602168E06808612F
:102BF00020680169228941EA02410161204603F00F
:102C00006DFB48B921680A6C22F480220A642168AD
:102C10000A6CA3691A430A642268FF21516208B151
:102C200010BD00200121617710BD0000BFFF8FFFA4
:102C300010B586B0044618216846FDF786FB0D499D
:102C40002068884214D102200090C0010490684698
:102C5000FFF74CFB08B1FEF713FC074901200860A1
:102C6000002205210320FFF7F1FA0320FFF7E1FA24
:102C700006B010BD002800403C0E474270B5044627
:102C8000007F0B46012819D00126267702206077A5
:102C9000B2B19878D97840EA01455878197800029D
:102CA00040EA413005432168CA2048622168532028
:102CB0004862204603F0EEFAD0B122E0022070BD57
:102CC0005878C10603D500F0EF000A305870D87864
:102CD00003F0D5FA0204587803F0D1FA42EA002250
:102CE000987803F0CCFA0243187842EA4035DAE7E4
:102CF0000748054020684560204603F0EFFA00B918
:102D000066772268FF2151620021217770BD0000A3
:102D10003FFFFF002DE9F0410446007F0D460128EA
:102D200023D04FF0010884F81C80022060772068CF
:102D3000002780684FEA4060D2B1002800DBEF70C6
:102D4000A878297840EA01466878E978000240EAE4
:102D5000815006432168CA20486221685320486296
:102D6000204603F097FAB8B12CE00220BDE8F081CC
:102D7000002800DBEF70287803F081FA02046878FD
:102D800003F07DFA42EA0022A87803F078FA0243C1
:102D9000E87842EA8056DDE70D4806402068066084
:102DA0002068816821F480218160D5E9030108430E
:102DB00021688A6810438860204603F08FFA08B9BA
:102DC00084F81D802268FF2151622777CEE700003A
:102DD0007F7F7F0070B504460B482168C860FFF70D
:102DE0008DF905464FF47A7607E000BFFFF786F9C4
:102DF000401BB04201D9032070BD2068C068800626
:102E0000F4D5002070BD00005F3F0100704770B531
:102E1000040009D0606A002540B125616561A562A2
:102E200094F8510040B10CE0012070BD6068B0F52D
:102E3000827FF4D0E561F2E784F85050204600F03C
:102E400045F8022084F851002068016821F0400113
:102E50000160A088218900F4827001F404410843D4
:102E6000A18901F400610843217C01F002010843BB
:102E7000217D01F001010843218B01F40071084319
:102E8000217F01F03801084394F8201001F08001FF
:102E90000843218D01F40051084321680860A069AE
:102EA000042101EA104094F8241001F010010843B5
:102EB000216848602068C16921F40061C1616565CD
:102EC000012084F85100002070BD000070B586B06C
:102ED000064614216846FDF738FA204930688842D2
:102EE0003AD11F480025016841F480510160006813
:102EF00000F4805005901A481438016841F002012E
:102F000001600068694600F00200059028200090EA
:102F10000220CDE90105032003900520049011480B
:102F2000FEF7EAFF114C104820604FF080606060AF
:102F30004020C4E90205000120614000606180007A
:102F4000C4E90605256220466562FEF77DFE08B1EC
:102F5000FEF796FAB464A66306B070BD0030014077
:102F6000443802400004024040640240680A0020E5
:102F70002DE9F84F984616468A460446FFF7BEF8F4
:102F8000814694F8510001281ED1BAF1000F73D088
:102F9000002E71D094F85000012815D0012784F834
:102FA0005070032084F8510000256565C4F830A0F6
:102FB000A686E686A563A587E58765642564A0687F
:102FC000B0F5004F03D00CE00220BDE8F88F206878
:102FD000016821F0400101602068016841F48041EE
:102FE000016020680168490603D4016841F040018E
:102FF0000160E068B0F5006F606803D048B3012E4F
:1030000027D047E008B1012E1FD1206B216800882E
:10301000C86006E020688168890709D5216B0988A6
:10302000C160206B801C2063E08E401EE0860CE0B7
:10303000FFF764F8A0EB0901414503D3B8F1FF3F66
:1030400003D035E0B8F1000F32D0E08E0028E1D196
:1030500023E0206B21680078087306E0206881680F
:1030600089070AD5216B09780173206B401C206306
:10307000E08E401EE0860DE02BE0FFF73FF8A0EB6E
:103080000901414503D3B8F1FF3F03D010E0B8F187
:10309000000F0DD0E08E0028E0D14A464146204680
:1030A00003F0FCF908B120206065A06830B109E0A8
:1030B00084F8517084F85050032086E72068C16876
:1030C0008068009084F8517004F8505F60680028B0
:1030D000F3D0012079E7000070B5044690F8510064
:1030E00001281CD1C9B1C2B194F85000012816D0F2
:1030F000012084F85000032084F851000025656504
:103100002163A286E286A56365642564A587E587B9
:10311000A068B0F5004F04D00DE0012070BD022082
:1031200070BD2068016821F04001016020680168DD
:1031300041F480410160A16C17480864A16C1748F4
:10314000C863A16C1648C864A06C0565E38E22684C
:10315000216B0C32A06CFEF7E1FD30B1606D40F0E8
:103160001000606584F85050D7E720680168490670
:1031700003D4016841F04001016084F85050206898
:10318000416841F0200141602068416841F002013E
:103190004160002070BD00002D6400083764000805
:1031A0000B640008704770474FF0E021042808695D
:1031B00003D020F004000861704740F00400FAE7F3
:1031C00010B5401EB0F1807F01D3012010BD4FF03B
:1031D000E02460610F21601704F0AFFA0020A061C5
:1031E00007202061002010BD7047704770B590F82F
:1031F0003C20012A2CD0012480F83C40022280F897
:103200003D2003685A689D6822F070060A683243C0
:103210005A60104B02689A420ED0B2F1804F0BD028
:103220000D4B9A4208D00D4B9A4205D00C4B9A4256
:1032300002D00C4B9A4204D1496825F0800319430F
:10324000916080F83D40002180F83C10084670BD38
:10325000022070BD00000140000400400008004052
:10326000000C00400040014010B5040003D094F869
:103270003D0010B107E0012010BD002084F83C00A3
:10328000204600F01EF8022084F83D00211D206831
:1032900003F024FD012084F8460084F83E0084F801
:1032A0003F0084F8400084F8410084F8420084F82C
:1032B000430084F8440084F8450084F83D00002071
:1032C00010BD704790F83D10012901D001207047D2
:1032D000022180F83D100168CA6842F00102CA600C
:1032E00000680E4988420ED0B0F1804F0BD00C49D7
:1032F000884208D00B49884205D00B49884202D049
:103300000A49884204D1816801F00701062903D0E7
:10331000016841F001010160002070470000014098
:103320000004004000080040000C00400040014044
:1033300070472DE9F04104460068C66805694FF002
:103340000007A90713D5B10711D5F91E01610120A6
:103350002077206880698007204602D0FFF7E8FFC9
:1033600004E000F0A7F8204600F04CF92777680742
:1033700016D5700714D521686FF00400086102208B
:1033800020772068806910F4407F204602D0FFF744
:10339000CFFF04E000F08EF8204600F033F92777E5
:1033A000280715D5300713D521686FF0080008618C
:1033B000042020772068C0698007204602D0FFF7EC
:1033C000B7FF04E000F076F8204600F01BF92777FD
:1033D000E80616D5F00614D521686FF010000861D4
:1033E000082020772068C06910F4407F204602D072
:1033F000FFF79EFF04E000F05DF8204600F002F9C0
:103400002777E80708D0F00706D021686FF00100A1
:103410000861204600F050F9280608D5300606D588
:1034200021686FF0800008612046FFF7DDFE680626
:1034300008D5700606D521686FF040000861204667
:1034400000F044F9A8060AD5B00608D521686FF047
:10345000200008612046BDE8F041FFF7C6BEBDE888
:10346000F081000010B586B0044614216846FCF7D0
:103470006CFF0D492068884214D10C480021026875
:1034800042F002020260006800F002000590012094
:1034900000900220CDE90101CDE9031069460448FE
:1034A000FEF72AFD06B010BD00040040303802408F
:1034B00000040240704770B5044690F83C000026B6
:1034C0000D4601280FD0012084F83C006AB1042A7F
:1034D0001DD0082A2FD00C2A3FD00126002084F8C6
:1034E0003C00304670BD022070BD206803F054FCE3
:1034F0002068816941F0080181612068816921F0BB
:1035000004018161206881692A69114311E0206802
:1035100003F06AFC2068816941F4006181612068E0
:10352000816921F480618161206881692A6941EAA9
:1035300002218161D2E7206803F082FC2068C16922
:1035400041F00801C1612068C16921F00401C16135
:103550002068C1692A69114311E0206803F09CFCCE
:103560002068C16941F40061C1612068C16921F42A
:103570008061C1612068C1692A6941EA0221C16193
:10358000ACE710B5040003D094F83D0010B107E09B
:10359000012010BD002084F83C00204600F01EF8F9
:1035A000022084F83D00211D206803F097FB0120D4
:1035B00084F8460084F83E0084F83F0084F8400018
:1035C00084F8410084F8420084F8430084F8440001
:1035D00084F8450084F83D00002010BD08B500685F
:1035E0000649884208D10648016841F0020101609D
:1035F000006800F00200009008BD000000040040D8
:10360000403802407047000010B50446022249B11C
:1036100004290ED0082913D094F84100012816D0AF
:10362000012010BD94F83E000128F9D184F83E2015
:103630000FE094F83F000128F2D184F83F2008E021
:1036400094F840000128EBD184F8402001E084F890
:1036500041200122206803F091FB12492068884232
:1036600003D1426C42F400424264206888420ED08A
:10367000B0F1804F0BD00C49884208D00B498842EA
:1036800005D00B49884202D00A49884204D181689A
:1036900001F00701062903D0016841F00101016032
:1036A000002010BD00000140000400400008004060
:1036B000000C00400040014000680349884201D1ED
:1036C000FEF722BD704700000000014070477047C0
:1036D00010B504460068406994F84110C0F3C0106A
:1036E000212911D180B12068143050E8001F21F049
:1036F000800140E80012002AF5D1A06B08B1FEF766
:1037000047F9204603F047FD2068406994F84210CD
:10371000C0F38010222911D180B12068143050E804
:10372000001F21F0400140E80012002AF5D1E06BB3
:1037300008B1FEF72DF9204603F006FD002010BD6C
:1037400070470000F8B5016804460868CA684B690C
:1037500010F00F0F4FF0000559D003F0010602F4EE
:103760009077374365D0C10705D0D10503D5616C8B
:1037700041F001016164410705D5D90703D0616CAF
:1037800041F002016164810705D5D90703D0616C5E
:1037900041F004016164010707D502F020013143C3
:1037A00003D0616C41F008016164616C00293AD07A
:1037B000800604D5900602D5204603F0FAFC206866
:1037C0004069616CC0F38010090700D460B32046E3
:1037D00003F0BAFC20684069400621D52068143007
:1037E00050E8001F21F0400140E80012002AF5D106
:1037F000E06BA8B172490165E06BFEF712F9002891
:1038000011D0E06B016D01B0BDE8F04008478306C0
:103810000FD593060DD52046BDE8F84003F0C9BC8E
:103820002046FFF78DFFF8BD2046FFF789FF65644E
:10383000F8BD266B2023012E7ED1C6067CD5D60688
:103840007AD508684868009048694FF0020640063B
:103850004DD5E26B106840684FF480770004000C8F
:103860003AD0A18D814237D9E085D069B8422DD0B8
:1038700020680C3050E8001F21F4807140E80012ED
:10388000002AF5D12068143050E8001F21F0010112
:1038900040E80012002AF5D12068143050E8001FDB
:1038A00021F0400140E80012002AF5D184F84230AE
:1038B000256320680C3050E8001F21F0100140E81B
:1038C0000012002AF5D1E06BFEF762F86663A08D66
:1038D000E18D401A81B206E0A18D8142A8D1D06964
:1038E000B842A5D166632046FFF7F1FEF8BDA08D72
:1038F000E18D401A81B2E08D0028F7D00029F5D083
:1039000020680C3050E8002F22F4907240E8002725
:10391000002FF5D12068143050E8002F22F001026A
:1039200040E80027002FF5D184F842302563206855
:103930000C3050E8002F00E006E022F0100240E8D2
:103940000023002BF3D1CDE705062BD5150629D58D
:1039500094F841002128C9D1A068B0F5805F01D159
:103960002069B0B1206A411C21622168007848605A
:10397000E08C401E0004000CE084B7D12068C168D0
:1039800021F08001C1602068C16841F04001C16040
:10399000F8BD206A0088C0F308004860206A801CD7
:1039A0002062E5E74006F3D55006F1D5CA68204607
:1039B00022F04002CA6084F8413000F02BF9F8BDD3
:1039C0004D70000870B5040004D094F84100002543
:1039D00010B106E0012070BD84F84050204600F090
:1039E00045F8242084F841002068C16821F4005182
:1039F000C160204603F03EFC2068016921F490413B
:103A000001612068416921F02A0141612068C16893
:103A100041F40051C1606564202084F8410084F8BD
:103A200042006563002070BD10B5044600680C4973
:103A3000884214D10B48016821F0100101604FF455
:103A4000C0610948FEF7B4F9E06BFDF7FCFFA06B1D
:103A5000FDF7F9FFBDE810402520FEF7D9BB10BDEA
:103A60000010014044380240000002402DE9F041BE
:103A700086B0064614216846FCF767FC304930687A
:103A8000884259D12F480024016841F0100101609B
:103A9000006800F0100005902A481438016841F0D1
:103AA000010101600068694600F0010005904FF4D3
:103AB000C06000900220CDE901040320039007209C
:103AC00004902148FEF718FA214D20484FF0006776
:103AD0002860C5E901744FF48068C5E903486C614A
:103AE000AC61EC612C6228466C62FEF7ADF808B15F
:103AF000FDF7C6FCF563AE63154D144860353030F4
:103B0000E5E802074020A5E81101114845F81449ED
:103B10006030AC61EC612C626C62FEF795F808B124
:103B2000FDF7AEFCB563002205212520AE63FEF74C
:103B30008DFB2520FEF77DFB06B0BDE8F08100007F
:103B400000100140443802400000024088640240F6
:103B5000580B002090F84230202B01D002207047F3
:103B600021B11AB10023036303F00ABC012070479E
:103B7000704770472DE9F843044690F84100984695
:103B800016460D46202802D00220BDE8F88385B1F4
:103B90007EB100206064212084F84100FEF7AEFA77
:103BA000A6848146E684A0682027B0F5805F02D015
:103BB00003E00120E9E7206910B12E4600250EE060
:103BC00000260CE08021204603F02AFCA8B9C6B1EB
:103BD00016F8010B21684860E08C401EE084E08C00
:103BE0004B464FF00002CDF800800028EAD14FF09C
:103BF0004001204603F014FC40B184F841700320DA
:103C0000C3E735F8020BC0F30800E3E784F841701E
:103C10000020BAE77047000008B50020184E194F81
:103C2000DFF86480194C8DF8000000BF02F010F935
:103C30008068B0421FD1012300226946386822F013
:103C400053FAFDF765FB94F86C00A0B92CF032F93B
:103C5000FDF726FBD8F8001000F02EF8C5B22CF0C6
:103C6000E1FE94F86D00A84205D0322D03D9782DDD
:103C700001D284F86D50322022F09CF9D6E7000082
:103C8000B8050020E8070020A00700205001002010
:103C90001CB5064806A190F86D20684603F026FD85
:103CA00004486946406819F089FC1CBD5001002099
:103CB00025640000B805002070B504460D462B4869
:103CC00011F091FB10B1294808F060FD2748203021
:103CD00011F089FB18B12548203008F057FD234822
:103CE000403011F080FB18B12048403008F04EFD04
:103CF00021461E480EF00AFB1C48294620300EF0D3
:103D000005FB1A481A4CD0E9032191422CD3826852
:103D1000914229D34268914226D94269914223D3E4
:103D20008269914220D3C06981421DD90F48A11CEC
:103D3000203002690888131AB3F5D57F14D3488060
:103D400092B20A80101A4EF6602191FBF0F10748FA
:103D500040300EF0DBFA05484030C16921B107213F
:103D6000001D00F095FA2070207870BD5079002079
:103D7000C0000020034A92F84C20002A01D1FCF731
:103D800075BE704750010020FCF758BE00F0CEBC55
:103D900000F0D4BC00F0DABC02F024BC01F05ABA46
:103DA00001F0ACBAFDF7CCBAFDF79ABA00F03EBF0D
:103DB00008B500200090054890F8300010B968461A
:103DC00008F063FE009880B208BD0000500100209A
:103DD00021F09CBA044991F8301011B14FF0FF3036
:103DE000704708F0A7BE00005001002002490020E3
:103DF00081F8350070470000500100200249012081
:103E000081F83500704700005001002002F062B8D0
:103E100002F01EB902F00CB910B586B004001FD034
:103E2000002269460F48FEF78BFE002205A90D48C7
:103E3000FEF764FE9DF81700E0709DF815106170A4
:103E40009DF81620A27014232CF016F920709DF80E
:103E5000000020719DF8010060719DF80200A071C2
:103E600006B010BDF009002002F04EBA02F066BAAA
:103E700010B5012901D0022903D1401E0C31C0B276
:103E8000C9B21A24491C11FB04F10A24B1FBF4F154
:103E900000EB900000EB930008441044594200EB03
:103EA0004100401E00E0C01D0028FCDB072190FB04
:103EB000F1F201FB120000B90720C0B210BDFEE70D
:103EC0001CB54FF4FA69744FDFF8D0810025744CAB
:103ED0002BF0F0FF002249467248FEF773FD08B14F
:103EE000FDF7CEFA192270496B48FFF733FE3868A8
:103EF000C16841F01001C16008216C48FFF784FBE4
:103F000008F00AFC206A8047A06A8047411E6329A6
:103F100001D8207700E0257700F0D0FC032606E0EA
:103F2000761E206DF6B2804784F84C001EB194F8DE
:103F30004C000028F4D1032606E0761E606EF6B22F
:103F4000804784F8600026B194F860000028F4D11E
:103F500002E094F8600008B9A06E8047032606E0EE
:103F6000761EE06DF6B2804784F858001EB194F8D2
:103F700058000028F4D1032606E0761EA06BF6B2A6
:103F8000804784F830001EB194F830000028F4D146
:103F9000032606E0761E206FF6B2804784F86C0098
:103FA00026B194F86C000028F4D102E010F0FF0F65
:103FB00001D1606F8047FDF771F9FDF73AF990BBC9
:103FC00002221021684602F09DFC9DF8000008B115
:103FD000012804D19DF8011031B1012904D084F8E1
:103FE000355088F8005003E084F8350088F8001058
:103FF000002201A92B48FEF781FD032220216846FB
:1040000002F080FC9DF800009DF8061088420AD15D
:104010009DF801009DF8021041EA002094F830104C
:1040200009B908F087FD20698047A0698047FCF73F
:10403000D3FEFCF739FF00F023FD4FF48C7600210E
:104040003346F0220846009500F0D1FC0A2008F023
:1040500079FB322000F0EAFD25F064F840F6C41048
:1040600008F070FB00213346F0220846009500F06E
:10407000BEFC18F0D7FB1DF06DFD1DF08FFD2BF081
:10408000B5FB2CF0CFFC00202BF046FE4FF4FA706D
:1040900021F090FF1CE70000100B00204C030020D3
:1040A00050010020F0090020180C0020C80A002050
:1040B00070B586B001F0CCFE8068694988427DD138
:1040C000684D03A829688847654C9DF81120143C69
:1040D0006078824208D0627063A1684603F006FBF4
:1040E0006946206A19F06AFA9DF810202078824209
:1040F00008D022705EA1684603F0F8FA6946A0690C
:1041000019F05CFA564E9DF80E30E07894368342F2
:1041100014D0E3709DF80C002071A27855A1684678
:1041200003F0E4FA6946206B19F048FA207906EBAF
:10413000800050F8041C606B19F040FA9DF80D20C7
:10414000A078824216D0A2709DF80E30E3709DF8E0
:104150000C00207147A1684603F0C8FA6946206B3D
:1041600019F02CFA207906EB800050F8041C606BE3
:1041700019F024FA287F6179884211D0607164288F
:1041800001D964206071C1B2606A12F08CFA627960
:104190003BA1684603F0AAFA6946E06A19F00EFAF4
:1041A0006A8E6089824218D0628137A1684603F026
:1041B0009DFA6946206C19F001FA00E04EE0618931
:1041C00064224FF4FA505143B1FBF0F1642900DD51
:1041D00064210022606C12F0C2FC95F94D1094F934
:1041E000080081420DD02172A06C12F05CFA94F9A3
:1041F000082025A1684603F079FA6946206D19F078
:10420000DDF995F94E1094F9090081420DD06172E3
:10421000A06D12F048FA94F909201BA1684603F03A
:1042200065FA6946E06D19F0C9F995F86D50A089F5
:10423000854213D0A5812A4614A1684603F056FA98
:104240006946A06E19F0BAF9290001D5002102E0F3
:10425000C82900DDC821206E12F025FA06B070BD15
:10426000E4040020500100202530326400000000EA
:10427000253264002532642D2530326400000000B0
:104280002564252500000000256400002575000038
:1042900010B500231A4604E050F82240521C234473
:1042A000D2B28A42F8D3B3FBF1F0C0B210BD10B560
:1042B00086B0044614216846FCF747F82089009030
:1042C0000120019002900220039069462068FDF7CA
:1042D00013FE6089009069466068FDF70DFE06B028
:1042E00010BD70B506460824002502F05BF813E007
:1042F0006806050E0021304602F042F8022008F060
:104300002EFA0121304602F03BF8012008F027FA8E
:10431000304602F03EF80543641EE4B2E8D20021C4
:10432000304602F02DF8304602F05AF8284670BDAB
:1043300010B50446002102F04AF8012008F00FFAF7
:104340000121204602F01CF8012008F008FA0021A3
:10435000204602F015F8BDE81040012008F0FFB932
:1043600070B50C460646082519E000BF02F008F8B3
:10437000022008F0F4F904F08001304602F027F83A
:10438000012008F0ECF96006040E012008F0E7F9BE
:104390000121304601F0F4FF012008F0E0F96D1E24
:1043A000EDB24FF000013046E0D201F0E9FFBDE888
:1043B0007040022008F0D3B910B50446012102F084
:1043C00006F8012008F0CBF90121204601F0D8FFC2
:1043D000012008F0C4F90021204601F0D1FFBDE81A
:1043E0001040022008F0BBB910B50446012101F0CD
:1043F000EEFF022008F0B3F90121204601F0C0FFD2
:10440000012008F0ACF90021204601F0E0FF012076
:1044100008F0A5F90021204601F0B2FFBDE81040E8
:10442000012008F09CB910B50446002101F0A8FF56
:10443000022008F094F90021204601F0C8FF012075
:1044400008F08DF90121204601F09AFF012008F0C3
:1044500086F90121204601F0BAFFBDE81040012095
:1044600008F07DB970B50546052401F09BFF0121D8
:10447000284601F085FF05E0641EA4B2012008F083
:104480006EF984B1284601F084FF0028F4D1284653
:1044900001F0A6FF0021284601F072FF022008F07B
:1044A0005EF9002070BD284601F09AFF2846FFF70C
:1044B000BAFF012070BD00002DE9F0411D461746EE
:1044C0000C468046069EFFF78FFF6006010E4046B1
:1044D000FFF746FF4046FFF7C5FF28B14046FFF70C
:1044E000A2FF0120BDE8F08139464046FFF738FFC2
:1044F0004046FFF7B7FF4046FFF776FF012000EB8D
:104500004400C1B24046FFF72BFF4046FFF7AAFF29
:1045100000246F1E0AE000BFFFF7E3FE3055BC42E7
:1045200002DA4046FFF704FF641CE4B2AC424046A6
:10453000F2D3FFF741FF4046FFF775FF0020D1E7B8
:1045400070B516460C460546FFF74EFF6006010E95
:104550002846FFF705FF2846FFF784FF3146284627
:10456000FFF7FEFE2846FFF77DFF2846FFF73CFFDA
:10457000012000EB4400C1B22846FFF7F1FE2846B7
:10458000FFF770FF2846FFF7ACFE04462846FFF70A
:1045900013FF2846FFF747FF204670BD2DE9F04185
:1045A0001D4617460C468046069EFFF71DFF600617
:1045B000010E4046FFF7D4FE4046FFF753FF28B1F7
:1045C0004046FFF730FF0120BDE8F0813946404604
:1045D000FFF7C6FE4046FFF745FF002408E0315DC7
:1045E0004046FFF7BDFE4046FFF73CFF641CE4B2C7
:1045F000AC42F4D34046FFF716FF012008F0AFF8B5
:104600000020E1E72DE9F0411D4616460C4607461D
:10461000FFF7EAFE6006010E3846FFF7A1FE3846B6
:10462000FFF720FF28B13846FFF7FDFE0120BDE867
:10463000F08131463846FFF793FE3846FFF712FF08
:1046400029463846FFF78CFE3846FFF70BFF384601
:10465000FFF7E9FE012008F082F80020E7E70000FC
:104660001CB50024124D134E134FDFF850808DF807
:1046700000408DF80440012300226946286821F09B
:10468000D5FC10B9052000F0D1FA0123002201A9C0
:10469000306821F0CBFC30B93C8098F8000000F085
:1046A000C5FAFCF705FD0A2021F084FCE3E70000D1
:1046B000E0070020E80700209E070020D604002025
:1046C00038B5154C154900252088401C80B2208043
:1046D000097801EB8101B0EB410F08D110488DF84A
:1046E0000050012300226946006821F0FDFC0D48BE
:1046F0002188007800EB8000B1EB400F0AD1012047
:104700008DF80000034608482580002269460068AD
:1047100021F0EAFC38BD00009E070020AC06002016
:10472000E0070020AD060020E407002000224FF43F
:1047300080710148FDF7DDBC00000240012211023A
:104740000148FDF7D6BC00000000024070B586B0FD
:1047500014216846FBF7F9FD0E480025016841F079
:104760000101016000680C4E00F001004FF48074FC
:1047700005902A4621463046FDF7BBFC0121CDE9D4
:104780000041CDE9021569463046FDF7B5FB06B09C
:1047900070BD000030380240000002402DE9F041B9
:1047A0000027244CDFF8908001253E4610B125708B
:1047B000667001E02078E8B120214046FDF78CFCCE
:1047C00020B110214046FDF787FC98B1032021F06D
:1047D000F1FB20214046FDF77FFC00B965701021F8
:1047E0004046FDF779FC10B10220607001E060786E
:1047F000E0B126706078C8B120214046FDF76CFC1E
:10480000A0B110214046FDF767FC78B9032021F0E4
:10481000D1FB20214046FDF75FFC38B11021404616
:10482000FDF75AFC10B92570677866703846BDE808
:10483000F0810000C6000020000002400EB50020FC
:104840001A4FDFF86C801B4C1B4D8DF800008DF863
:1048500008008DF8040001264FF002090020FFF740
:104860009DFF012802D002281CD102E08DF80060D3
:104870000CE001F0EDFA8068B84205D10123002276
:1048800002A9D8F800000BE08DF800900123002267
:104890006946206821F028FC0123002201A928682C
:1048A00021F022FC012021F085FBD7E7E404002061
:1048B000E4070020DC070020E807002030B587B0BF
:1048C00014216846FBF741FD18480024016841F0B7
:1048D000010101600068164D00F0010005902020E4
:1048E00000904FF404100190012002906946284680
:1048F000FDF702FB102000904FF48810CDE9010471
:1049000069462846FDF7F8FA002211461720FDF700
:104910009DFC1720FDF78DFC002211460A20FDF7B3
:1049200095FC0A20FDF785FC07B030BD3038024009
:10493000000002402DE9F04104461D4616460F4690
:104940002A2000F067FC204600F054FC304600F0BE
:1049500051FC2B2000F05EFC384600F04BFC284652
:1049600000F048FCBDE8F0412C2000F053BC0000F2
:10497000024900200968C86370470000C80A002087
:1049800070B55D1A141A641C6D1C143314316C4319
:104990009BB289B2049EFFF7CDFF0D4D4FF400602E
:1049A000E8602868016841F400610160A2B2314604
:1049B0002846FEF791FB0748006841680029FCD1B2
:1049C0000020E8602868016821F40061016070BD82
:1049D000100A0020680A002010B514460B46024653
:1049E000FFF7A8FF2046BDE8104000F003BC2DE90A
:1049F000F04780461F4603F1130083B21646501E4F
:104A000082B20C4601F1140081B24046DDF82090DC
:104A1000FFF790FF0AE0454604E0484600F0EAFB55
:104A20006D1CADB2B542F8D3641CA4B2BC42F2D343
:104A3000BDE8F08730B587B014216846FBF785FCE8
:104A40000D48016841F00201016000684FF4607494
:104A500000F0020005900120CDE900400320074D41
:104A6000039069462846FDF747FA01222146284669
:104A7000FDF73FFB07B030BD303802400004024074
:104A800010B5FFF7D7FF684C00224FF48071204625
:104A9000FDF72FFB002280212046FDF72AFB642032
:104AA00007F050FE012280212046FDF722FB642002
:104AB00007F048FE112000F0ADFB782007F042FE21
:104AC000362000F0A7FB002000F0BAFB3A2000F0EF
:104AD000A1FB052000F0B4FBB22000F09BFB0C20F2
:104AE00000F0AEFB0C2000F0ABFB002000F0A8FBB8
:104AF000332000F0A5FB332000F0A2FBB72000F02C
:104B000089FB352000F09CFBBB2000F083FB1920C3
:104B100000F096FBC02000F07DFB2C2000F090FB05
:104B2000C22000F077FB012000F08AFBC32000F0D8
:104B300071FB122000F084FBC42000F06BFB2020EE
:104B400000F07EFBC62000F065FB0F2000F078FB34
:104B5000D02000F05FFBA42000F072FBA12000F049
:104B60006FFBE02000F056FBD02000F069FB042032
:104B700000F066FB0D2000F063FB112000F060FBED
:104B8000132000F05DFB2B2000F05AFB3F2000F0CB
:104B900057FB542000F054FB4C2000F051FB182030
:104BA00000F04EFB0D2000F04BFB0B2000F048FB0B
:104BB0001F2000F045FB232000F042FBE12000F025
:104BC00029FBD02000F03CFB042000F039FB0C2036
:104BD00000F036FB112000F033FB132000F030FB17
:104BE0002C2000F02DFB3F2000F02AFB442000F099
:104BF00027FB512000F024FB2F2000F021FB1F2079
:104C000000F01EFB1F2000F01BFB202000F018FB13
:104C1000232000F015FB212000F0FCFABDE8104035
:104C2000292000F0F7BA000000040240411F5F296C
:104C300007D804490968CA6A42436420B2FBF0F00D
:104C4000C8637047C80A00202DE9FF4F81B00446B1
:104C5000DDF83C9000904FEA59074FF000087807C4
:104C600000D0012000EBD70000FB09FB203AD0B2B6
:104C70000390029802994844401E83B2E019401EF6
:104C800082B22046FFF756FE002553E0B9F10C0F23
:104C90002AD0B9F1100F2ED0B9F1180F2ED0B9F1DA
:104CA000200F49D12749039801EB8010002610F806
:104CB00005A0109800284FF0010000FA06F000EA65
:104CC0000A0022D020B12046049A0299FFF784FE00
:104CD000641C0098A4B2201AB84225D10298009C06
:104CE000401C80B2029023E00398174900EB40007B
:104CF00001EB8000DAE71549039803E003981449B3
:104D000000EB400001EB0010D0E708B1049800E090
:104D10000E9800F06FFA08F10100C0B2B0FBF7F195
:104D2000804607FB118050B1761CF6B2082EC0D326
:104D30006D1CADB25D45A9D305B0BDE8F08F4FF055
:104D40000008F5E7C4280308900C030804110308C1
:104D5000F41603082DE9FE4F9946DDE90D46154688
:104D60008A460746DDF8308014E00C2C17D0102C52
:104D700020D0182C29D0202C0FD1CDF80080CDE9DF
:104D800001464B462A465146384600F09BF93819F1
:104D900087B2AD1C28780028E7D1BDE8FE8FCDF89A
:104DA0000080CDE901464B462A465146384600F080
:104DB00017F8ECE7CDF80080CDE901464B462A46CE
:104DC0005146384600F088F8E1E7CDF80080CDE99B
:104DD00001464B462A465146384600F0F7F8D6E7DA
:104DE0002DE9FF4F83B08046119D00904FF00009E0
:104DF000680700D0012000EBD50000FB05FB052073
:104E00000026029006EB860000EBC6013148059AA9
:104E100010F811301278934251D100EB410001900B
:104E2000417805984078814249D1049804992844F2
:104E3000401E83B208EB0500401E82B24046FFF7D9
:104E400079FD002739E00198002400EB070A129849
:104E50009AF8021000284FF0010000FA04F001EA6D
:104E6000000115D021B14046069A0499FFF7B4FD20
:104E700008F101001FFA80F80098A8EB0000A84292
:104E800015D10498DDF80080401C80B2049012E037
:104E900009B1069800E0109800F0ACF909F10100A2
:104EA000C0B2B0FBF5F1814605FB119078B1641CEE
:104EB000E4B2082CCBD37F1CFFB25F45C3D3761C72
:104EC0000298B6B286429DD307B0BDE8F08F4FF08E
:104ED0000009F0E7844003082DE9FF4F83B08046C6
:104EE000119D00904FF00009680700D0012000EBF1
:104EF000D50000FB05FB1C20002602903248059AD5
:104F000006EB061110F811301278934250D100EBE5
:104F100041000190417805984078814248D1049839
:104F200004992844401E83B208EB0500401E82B25B
:104F30004046FFF7FFFC002738E00198002400EB13
:104F4000070A12989AF8021000284FF0010000FAA0
:104F500004F001EA000114D021B14046069A0499F8
:104F6000FFF73AFD08F1010000991FFA80F8A8EB5D
:104F70000100A84214D104988846401C80B20490D5
:104F800012E009B1069800E0109800F033F909F139
:104F90000100C0B2B0FBF5F1814605FB119078B17C
:104FA000641CE4B2082CCCD37F1CFFB25F45C4D391
:104FB000761C0298B6B28642A0D307B0BDE8F08F47
:104FC0004FF00009F0E70000064103082DE9FF4F0C
:104FD00083B08046119D00904FF00009680700D013
:104FE000012000EBD50000FB05FB05200026029008
:104FF00006EB860000EB46113148059A10F8113097
:105000001278934251D100EB41000190417805980C
:105010004078814249D1049804992844401E83B2C3
:1050200008EB0500401E82B24046FFF783FC0027D4
:1050300039E00198002400EB070A12989AF8021050
:1050400000284FF0010000FA04F001EA000115D039
:1050500021B14046069A0499FFF7BEFC08F1010011
:105060001FFA80F80098A8EB0000A84215D1049818
:10507000DDF80080401C80B2049012E009B106986F
:1050800000E0109800F0B6F809F10100C0B2B0FBE2
:10509000F5F1814605FB119078B1641CE4B2082C4F
:1050A000CBD37F1CFFB25F45C3D3761C0298B6B248
:1050B00086429DD307B0BDE8F08F4FF00009F0E7BE
:1050C000BE4403082DE9FF4F83B08046119D009038
:1050D0004FF00009680700D0012000EBD50000FB6D
:1050E00005FB0520002602903248059A06EB861142
:1050F00010F811301278934250D100EB410001902A
:10510000417805984078814248D104980499284410
:10511000401E83B208EB0500401E82B24046FFF7F6
:1051200009FC002738E00198002400EB070A1298D8
:105130009AF8021000284FF0010000FA04F001EA8A
:10514000000114D021B14046069A0499FFF744FCAF
:1051500008F1010000991FFA80F8A8EB0100A842AD
:1051600014D104988846401C80B2049012E009B122
:10517000069800E0109800F03DF809F10100C0B277
:10518000B0FBF5F1814605FB119078B1641CE4B2E7
:10519000082CCCD37F1CFFB25F45C4D3761C029889
:1051A000B6B28642A0D307B0BDE8F08F4FF0000939
:1051B000F0E70000304603082DE9FE4F9946DDE98F
:1051C0000D6714468A460546DDF830800CE0CDF8C0
:1051D00000804B4651462846CDE90167FFF734FD74
:1051E00005EB560085B2641C2278002AEFD1BDE899
:1051F000FE8F000008B5010A8DF800108DF801003F
:105200000123022269460248FDF7B2FE08BD0000F4
:10521000100A002070B5094D06464FF400740022B4
:1052200021462846FCF765FF304600F009F8214684
:105230002846BDE870400122FCF75BBF0004024035
:1052400001B501231A4669460148FDF791FE08BDE4
:10525000100A002038B527480024016841F00201F7
:105260000160006800F0020000902348FFF71FF87B
:105270001021232000F0BEF80120FCF787FD2F212C
:10528000202000F0B7F80120FCF780FD202000F07E
:10529000A5F82F2807D00A20FCF778FD641CE4B29B
:1052A000032CE5D324E00120FCF770FD002410213D
:1052B000002000F09FF80120FCF768FD802101200C
:1052C00000F098F80120FCF761FD0021022000F0B9
:1052D00091F80120FCF75AFD022000F07FF8002829
:1052E00007D00A20FCF752FD641CE4B2032CDED385
:1052F000012038BD30380240C800002010B503211D
:10530000022000F077F80F21BDE81040202000F0C7
:1053100071B810B50021022000F06CF82F21BDE813
:105320001040202000F066B87CB514460D460646B5
:105330006A460621282000F035F89DF801009DF806
:10534000003043EA002333809DF8030001029DF8FA
:105350000200084328809DF8050001029DF8040022
:10536000084320807CBD7CB514460D4606466A463F
:105370000621032000F016F89DF800009DF801308A
:1053800043EA002333809DF8020001029DF80300E8
:10539000084320809DF8040001029DF805000843A1
:1053A00028807CBD2DE9F04190460E46054619281F
:1053B00001D9192700E01E27002409E02819C2B2EC
:1053C00039460548FFF7BCF808F80400641CE4B24D
:1053D000B442F3D3BDE8F081C8000020192801D9F8
:1053E000192100E01E2102460148FFF7A9B800007C
:1053F000C80000200B46192801D9192100E01E2100
:1054000002460148FFF7FEB8C800002038B50E4C30
:105410000EA16846627802F069F96946206A18F0C0
:10542000CDF8A27809A1684602F060F96946A06A41
:1054300018F0C4F8E27805A1684602F057F9694609
:10544000206B18F0BBF838BD6407002025303264AB
:105450000000000008B500200A4C8DF800004FF451
:105460007A75002012F0B0FDA84205D200231A463A
:105470006946606C20F038FE1EF006FE012020F028
:1054800099FDEEE7A407002008B501261B4FDFF8C1
:105490007090DFF870A0DFF870801C4C00254FF48E
:1054A000967B00BF94F8350018B300F013F910B1E3
:1054B00084F834601DE094F83400012817D184F892
:1054C000345000F0C5FC8068B84209D000F0C0FC40
:1054D0008168494504D000F0BBFC8168514506D184
:1054E000012300226946D8F8000020F0FDFD84F871
:1054F0003450584620F05EFDD4E70000E40400205C
:10550000E0050020EC060020E40700205001002008
:10551000064882B0016841F002010160006800F0B5
:1055200002000090024802B0FEF7C1BE30380240CF
:10553000D40000207CB514460D4606466B46062274
:105540003B21682000F048F800280BD1BDF800107E
:1055500049BA3180BDF8021049BA2980BDF804105B
:1055600049BA21807CBD3EB50C46054601AA694674
:1055700002A8FFF7DFFFBDF8000010FB00F1BDF847
:10558000040010FB001000EE100AB8EEC00A02F092
:105590005FFFBDF90800F0EE400A00EE100AB8EE19
:1055A000C01A81EE200A02F001FAB1EE400A84ED41
:1055B000000ABDF9000000EE100ABDF90400F8EE83
:1055C000C00A00EE100AB8EEC01A80EE810A02F09E
:1055D000EDF985ED000A3EBD2DE9F04106461D4678
:1055E00014460F462048FEF7FFFE7006010E1E48C7
:1055F000FEF7B6FE1C48FEF735FF28B11A48FEF745
:1056000012FF0120BDE8F08139461748FEF7A8FED9
:105610001548FEF727FF1448FEF7E6FE012000EBD1
:105620004600C1B21048FEF79BFE0F48FEF71AFF76
:105630000BE00D48012C0FD0FEF753FE28700A48EE
:10564000FEF776FE641EE4B26D1C002CF1D1064814
:10565000FEF7E9FE0020D5E7FEF743FE287002487A
:10566000FEF7AAFEEEE70000D40000202DE9F0418D
:1056700004461E4615460F461548FEF7B5FE600661
:10568000010E1348FEF76CFE1148FEF7EBFE80B9E1
:1056900039460F48FEF764FE0D48FEF7E3FE00248E
:1056A0000FE0315D0A48FEF75BFE0948FEF7DAFEBF
:1056B00028B10748FEF7B7FE0120BDE8F081641C61
:1056C000E4B2AC42EDD30248FEF7ADFE0020F4E7B1
:1056D000D40000201CB501A96846FFF744FF0098DC
:1056E0004FF07C5188420ADC4FF03F42904206D88E
:1056F0000198884203DC904201D801201CBD0020A3
:105700001CBD00001FB500211548009101910291B8
:10571000124A039102604FF48032C0E90121016115
:10572000017680F820100F4AC0E90A210124C461E3
:10573000C16080F830104461FBF7F5FF08B1FBF75A
:105740009FFE07200094CDE9014069460448FBF71D
:1057500035FF002801D0FBF793FE1FBD002001405C
:10576000A80900200100000F114808B5016841F4A4
:10577000800101600068002200F480000090052193
:105780003A20FCF763FD3A20FCF753FD0022052187
:105790004420FCF75BFD4420FCF74BFD0022052173
:1057A0004620FCF753FDBDE808404620FCF741BD0C
:1057B0003038024010B501F08FFE044A0021044841
:1057C00020F0C6FC0349086010BD00004C0C030823
:1057D000B56900080000002070B5194886B00024A3
:1057E000016841F004010160016801F004010591C4
:1057F000016841F001010160016801F001010591BA
:10580000016841F0020101600068142100F002000B
:1058100005906846FAF799FD0A4E4FF400550022AC
:1058200029463046FCF765FC01200095CDE90104CE
:10583000694630460394FCF75FFB06B070BD00007C
:10584000303802400008024010B586B01421684686
:10585000FAF77BFD2348002421490594C0E9001490
:105860007F218160FF21C0E9031444618461FDF759
:1058700091F908B1FBF704FE11208DF800005920C2
:105880008DF8010055208DF802000394012269462D
:1058900014480494FDF73EFA08B1FBF7F1FD072028
:1058A0008DF8140005208DF8150021208DF81600C4
:1058B00023208DF81700012205A90A48FDF7DEF91B
:1058C00008B1FBF7DDFD00224FF4FA610548FDF752
:1058D00079F8002801D0FBF7D3FD06B010BD000019
:1058E00000280040F0090020104810B50E49016062
:1058F0004FF482714160002102228160C0E90312ED
:10590000012242615202C0E90621016241628162C4
:105910000A21C162FDF77BFA002803D0BDE81040E0
:10592000FBF7AEBD10BD000000300140100A0020A2
:1059300010B58AB0002407941C2168460894FAF731
:1059400004FD1648144901606321C0E901144FF4B5
:105950009671C0E903148461FDF713FE08B1FBF7EB
:105960008FFD079407A90D480894FDF73FFC08B187
:10597000FBF786FD6020CDE9000402940822694609
:1059800006480494FDF797FD08B1FBF779FD03483D
:10599000FDF768FD0AB010BD00040040C80A0020F1
:1059A0000C4810B50A4901604FF4165141600021BE
:1059B00081600C22C160C0E904128161C161FEF7FF
:1059C00001F8002803D0BDE81040FBF759BD10BD19
:1059D00000100140100B0020FEE7000086B0464E8C
:1059E00000254FF47A77307800287DD04348357011
:1059F0008DF804500123002201A9006820F074FBF7
:105A00003F4940A001F062FE41A13D48FAF7AFFCDA
:105A100078B140A13A48FAF7AAFC70B140A13848E1
:105A2000FAF7A5FC80B13648FAF79AFC142847D05B
:105A300058E03DA001F04AFE54E000231A4601213F
:105A40003BA001F043FE4DE03E4C0022211D3E48AC
:105A5000FDF776F8002221463B48FDF74FF83B481A
:105A600090F84E10217690F84D10617690F86D10F8
:105A7000A17690F86E10E176408EA083A2786178CE
:105A800033A001F023FEA3796279217934A001F0DB
:105A90001DFE94F9181038A001F018FE94F91910A1
:105AA00039A001F013FEA17E3CA001F00FFEE17EC3
:105AB0003FA001F00BFEA18B40A001F007FE11E01A
:105AC0000295039502A90E48049501F025F83F4878
:105AD000007838B13EA102A8FAF749FC10B908488D
