:020000040800F2
:10000000F8AB01206D020008F55B00084B3F0008CB
:10001000F5590008A10E0008A973000800000000AF
:10002000000000000000000000000000AD0100081A
:10003000BD1200080000000009020008B16A0008B3
:100040008702000887020008870200084D62000846
:10005000870200088702000887020008870200085C
:100060004D140008870200085D140008870200088C
:10007000870200088702000887020008870200083C
:1000800087020008870200088702000800000000BD
:1000900000000000000000000000000063140008E1
:1000A00087020008716B00088702000887020008B9
:1000B00087020008870200088702000887020008FC
:1000C00087020008870200088702000887020008EC
:1000D000870200086973000887020008000000001A
:1000E0003D14000887020008870200080000000095
:1000F000000000000000000000000000870200086F
:10010000000000008702000887020008870200083C
:1001100000000000000000000000000000000000DF
:1001200087020008870200084911000887020008BA
:10013000870200080000000000000000000000002E
:10014000000000000000000000000000870200081E
:100150005511000887020008611100088702000895
:10016000870200088702000800000000000000006D
:10017000000000000000000000000000000000007F
:1001800000000000870200080000000000000000DE
:100190008702000887020008DFF80CD000F0DCFBC3
:1001A0000048004785470208F8AB01202C4B19682E
:1001B0000868B0E8F04F80F30988BFF36F8F4FF005
:1001C000000080F3118870470000000008480068B4
:1001D000006880F308884FF0000080F3148862B64E
:1001E00061B6BFF34F8FBFF36F8F00DF00BF00BF5B
:1001F00008ED00E0DFF80C00016841F470010160D7
:10020000704700BF88ED00E0EFF30980BFF36F8F08
:10021000134B1A681EF0100F08BF20ED108A20E95A
:10022000F04F106009B44FF0500080F31188BFF315
:100230004F8FBFF36F8F2FF0E3FC4FF0000080F380
:10024000118809BC19680868B0E8F04F1EF0100F5B
:1002500008BFB0EC108A80F30988BFF36F8F704736
:100260001C000020EFF3058070470000064880471F
:1002700006480047FEE7FEE7FEE7FEE7FEE7FEE78B
:10028000FEE7FEE7FEE7FEE7616B00089901000864
:100290002DE9F05F0546002092469B4688460646BB
:1002A000814640241BE0284641464746224600F04E
:1002B0006BFA53465A46C01A914110D3114618465C
:1002C000224600F052FA2D1A67EB01084F462246EB
:1002D0000120002100F049FA17EB00094E41201ED1
:1002E000A4F10104DFDC484631462A464346BDE816
:1002F000F09F00000649074A0868504343F239025C
:1003000010440860400870470149086070470000C9
:10031000980900206D4EC64140EA01039B0703D0B7
:1003200009E008C9121F08C0042AFAD203E011F834
:10033000013B00F8013B521EF9D27047D2B201E0F6
:1003400000F8012B491EFBD270470022F6E710B5DA
:1003500013460A4604461946FFF7F0FF204610BD33
:10036000421C10F8011B0029FBD1801A704710B500
:10037000002200E0521C835C8C5CA34201D1002B64
:10038000F8D1D8B2E1B2401A10BD30B50446002011
:10039000034600E05B1C934203D2E05CCD5C401B53
:1003A000F8D030BD034611F8012B00F8012B002ACC
:1003B000F9D1184670472DE9FE4F804681EA0300C7
:1003C000C00F0C46009021F0004123F00045B8EB2F
:1003D0000200A94105D24046214690461C460B46E4
:1003E000024623F00040104347D0270DC7F30A0010
:1003F000C3F30A510290401A019040286BDAC3F30C
:10040000130040F4801B0098924620B10023D2EBE9
:10041000030A63EB0B0B01985946C0F140025046AA
:1004200000F0A3F906460D4650465946019A00F0E1
:10043000BBF910EB08006141002487EA115284EAFD
:10044000E7731A4340D0009A62B3019A012A4FEA37
:10045000075215DC001B61EB02014FF0004202EA7B
:100460000752CDE90042001C41F5801132462B466F
:1004700000F0F2F903B0BDE8F08F40462146F9E7FD
:10048000001B61EB0201001C41F5801300185B4169
:100490002018A2F5001747EB030140EAD570B61902
:1004A0006D4111E06D084FEA360645EAC0754FEA26
:1004B0000752001B61EB0201001C41F58011490845
:1004C0004FEA30000019514132462B4603B0BDE8D7
:1004D000F04F00F0B2B90098012240000023D0EBA9
:1004E000020263EBE073009821464FEAE074B8EB38
:1004F000000061EB0401E9E783F000435BE781F072
:10050000004158E72DE9FE4F81EA030404F000445E
:1005100021F0004100944FF0000B23F0004350EA1B
:1005200001045ED052EA03045BD0C3F30A54C1F362
:100530000A552C44A4F2F3340194A0FB0254C1F3F5
:10054000130141F48011C3F3130343F4801301FB3F
:10055000024400FB034E840A970A44EA815447EAA6
:100560008357A4FB076802958D0A05FB07854FEAB0
:10057000932C04FB0C542705029D4FEA065847EACA
:100580001637B5EB08056EEB070C870E920E47EA9F
:10059000811742EA8312A7FB0201B6EB0B0164EB61
:1005A00000042B0D43EA0C335E1844EB1C50DA4672
:1005B0005146E7FB0201C5F313044FEA0B3343EA4C
:1005C00014534FEA0432019C43EA0603A4F10C04DD
:1005D0000294009CCDE900B400F03EF903B0BDE800
:1005E000F08F00200146F9E72DE9F04D81EA030480
:1005F00004F0004B21F0004514464FF0000A23F0B0
:10060000004150EA050220D054EA01021DD0C5F392
:100610000A570246C5F31303C1F31300C1F30A5688
:1006200040F4801543F48013A7EB0608101BD64650
:1006300008F2FD3873EB050002D308F1010801E070
:1006400092185B41B8F1000F03DA00200146BDE8C3
:10065000F08D00204FF48011064684460EE0171BF3
:1006600073EB050705D3121B63EB050306434CEA46
:10067000010C49084FEA300092185B4150EA01072B
:10068000EDD152EA030012D082EA040083EA0501A8
:10069000084305D0101BAB4106D20122002306E01F
:1006A00000224FF0004302E06FF0010253101AEBFA
:1006B00006004CEB085110EB0A0041EB0B01BDE8C2
:1006C000F04D00F0BAB80EB540F23341029100216E
:1006D000CDE900110A460B4600F0BEF803B000BD9C
:1006E00000F0004230F000400AD0C10D01F5607109
:1006F000C0F3160042EA0151C20840071143704797
:1007000000200146704701F0004330B421F0004161
:1007100050EA010206D00A0DA2F56072C1F313017E
:10072000002A02DC30BC00207047440F44EAC104B8
:10073000C100E01830BC00EBC25000F047B830B543
:100740000B46014600202022012409E021FA02F58F
:100750009D4205D303FA02F5491B04FA02F5284429
:10076000151EA2F10102F1DC30BD202A04DB203A83
:1007700000FA02F1002070479140C2F1200320FAF4
:1007800003F3194390407047202A04DB203A21FAF2
:1007900002F00021704721FA02F3D040C2F120029A
:1007A0009140084319467047202A06DBCB17203AB0
:1007B00041FA02F043EAE07306E041FA02F3D04066
:1007C000C2F1200291400843194670470029A8BF92
:1007D0007047401C490008BF20F00100704710B46A
:1007E000B0FA80FC00FA0CF050EA010404BF10BC1F
:1007F000704749B1CCF1200421FA04F411FA0CF14C
:1008000018BF012121430843A3EB0C01CB1D4FEA84
:1008100000614FEA102042BF002010BC704700EB7F
:10082000C35010440029A4BF10BC7047401C4900AD
:1008300008BF20F0010010BC704710B5141E73F102
:10084000000408DA401C41F1000192185B411A4390
:1008500001D120F0010010BD2DE9F04D92469B46DC
:1008600011B1B1FA81F202E0B0FA80F22032904682
:10087000FFF77BFF04460F4640EA0A0041EA0B01FE
:1008800053465A46084313D0114653EA010019D083
:10089000C8F140025046FFF777FF05460E46504626
:1008A00059464246FFF761FF084305D0012004E0A6
:1008B00020463946BDE8F08D0020054346EAE07643
:1008C0002C4337430A986305E40AA0EB0800002292
:1008D000FD0A44EA47540A3002D500200146E9E700
:1008E000010510196941DDE9084500196941BDE8B4
:1008F000F04DA2E7C1F30A52C1F3130140F2FF33F6
:1009000041F480119A4202DA00200146704740F219
:1009100033439A42A2F2334202DC5242FFF734BF21
:10092000FFF723BF30B5041E71F1000404DB4FF064
:100930000044404264EB0101141E73F1000405DB26
:100940001C464FF00043524263EB0403994208BF38
:10095000904230BD00207047064C074D06E0E0682D
:1009600040F0010394E8070098471034AC42F6D3F6
:10097000FFF716FCE81106080812060870B58C1877
:1009800010F8015B15F0070301D110F8013B2A11A3
:1009900006D110F8012B03E010F8016B01F8016B90
:1009A0005B1EF9D12B0705D40023521E0DD401F88C
:1009B000013BFAE710F8013BCB1A921C03E013F855
:1009C000015B01F8015B521EF9D5A142D8D300208A
:1009D00070BD0000464910B54A6822F440324A60B2
:1009E0004A6843681A434A6001684A6822F4807280
:1009F0004A6001684A68036942EA03224A60016862
:100A00004A6822F040724A6001684A6883681A4363
:100A10004A6001688A6822F400628A6001688A6814
:100A2000C3681A438A60816A6FF07062D1420168BC
:100A30008A6822F070628A6001688A680CD0836AD2
:100A40001A438A6001688A6822F040528A6001680D
:100A50008A68C36A1A4301E022F040528A60016842
:100A60008A6822F002028A6001688A68037E42EA8C
:100A700043028A6090F82010002901684A680FD06C
:100A800042F400624A6001684A6822F460424A60A7
:100A900001684A68174C436A04EB43331A4301E088
:100AA00022F400624A600168CA6A22F47002CA62D3
:100AB0000168CA6A838B104C04EB03531A43CA6261
:100AC00001688A6822F400728A6001688A6890F876
:100AD000303042EA43228A6001688A6822F48062E8
:100AE0008A6001688A68406942EA8020886010BD97
:100AF0000023014000E0FFFF0000F0FF094808B5B7
:100B0000016841F002010160006800F002000090FD
:100B1000054803F0DCFB28200BF060FD00F0AAF88C
:100B2000002008BD303802409C0000202DE9F05F15
:100B300082468B46052400254C4803F065FC702155
:100B40004A4803F01DFC494803F09CFCAC2147488F
:100B500003F016FC454803F095FC3321434803F0AD
:100B60000FFC424803F08EFC0021404803F008FCD3
:100B70003E4803F087FC3D4803F065FC50200BF035
:100B80002DFD06E005200BF029FD641EE4B200F007
:100B900071F800F06FF8C00702D0002CF2D162E0CB
:100BA000002C60D0314803F02FFC71212F4803F056
:100BB000E7FB2E4803F066FC2C4803F0A2FB2B4811
:100BC00003F0C6FB294803F09CFB8146274803F04D
:100BD000BFFB264803F095FB8046244803F0B8FB92
:100BE000224803F08EFB0746204803F0B1FB1F4864
:100BF00003F087FB06461D4803F0AAFB1B4803F0E1
:100C000080FB0446194803F0E7FB184803F01BFC7F
:100C100045EA090548EA052147EA012108094FF498
:100C20007A714843000D00EE100A380746EA105169
:100C3000F8EE400AB2EE040A44EA01204FF4FA61E9
:100C400080EE801A48430A4901EB105000EE900AEA
:100C50000020F8EE600A8AED001A80EE801A8BED13
:100C6000001ABDE8F09F0120FBE700009C00002077
:100C70000CFEFFFF10B50B4803F0C6FB71210948BD
:100C800003F07EFB074803F0FDFB064803F039FB49
:100C90000446044803F0A0FB024803F0D4FB2046BE
:100CA00010BD00009C00002010B505F0F5F99FED87
:100CB000091AF0EE400A80EE810ADFED070A06F01D
:100CC00037FFF7EE000A30EEC00ADFED040A20EE2F
:100CD000200A10BD80E6C54701DE423E002A2D47AE
:100CE0002DE9F0411D462DED068B14460E460746B4
:100CF0009DED0D8ADDED0C8A11FB06F012FB040060
:100D000000EE100AB8EEC00A07F00CFBF0EE400A45
:100D100000EE107AB8EEC00A06F08AFCF0EE409AB7
:100D200017FB07F014FB040000EE100AB8EEC00A2F
:100D300007F0F8FAF0EE400A00EE106AB8EEC00ACA
:100D400006F076FCB0EE409A06F04AFEF8EEE80AAD
:100D500060EE208AB0EE490A07F01CFAF0EE400A75
:100D600000EE105AB8EEC00A20EE80AAB0EE690A72
:100D700007F010FA4AEE008AB0EE690A06F030FE7B
:100D8000F8EEC80A20EE20AAB0EE490A07F002FAEF
:100D90004AEE408AB0EE690A06F022FEF0EE400A02
:100DA00000EE105AB8EEC00A20EE809AB0EE690A42
:100DB00007F0F0F9F8EEC80A00EE809AB0EE680A83
:100DC000F0EE490A06F034FCDFED030ABDEC068BB9
:100DD00020EE200ABDE8F081E22E6542064882B08E
:100DE000016841F001010160006800F0010000901D
:100DF000024802B003F06BBA30380240A80000206D
:100E000008B50B46009202465021024803F064FBED
:100E100008BD0000A800002008B50B46009202465D
:100E20005021024803F0CAFB08BD0000A8000020C2
:100E300070B500252C46154800F06CFD05211348BF
:100E400000F012FD114800F0B1FC05440F4800F01D
:100E5000C7FD01200BF0C2FB641CE4B2082CEAD3EE
:100E6000E8084000FFF72FFC9FED091B53EC112B06
:100E7000FFF748FB9FED081B53EC112BFFF742FBDC
:100E8000FFF741FC00EE100A70BD0000A40900202D
:100E90006666666666660A40000000000000303F35
:100EA000FEE7000030B587B014216846FFF74DFA21
:100EB0001348016841F002010160016801F002017C
:100EC0000591016841F00101016000684FF40044A0
:100ED00000F0010005900120CDE9004002900320C0
:100EE000084D03906946284601F04CF8012221463E
:100EF000284601F044F9044803F0E9F907B030BD91
:100F0000303802400000024038010020022000F08A
:100F100021B800001CB501A800900423032215216C
:100F20000B4803F0D9FA9DF804109DF8050001F074
:100F30000F0140EA01210648083801609DF80620AB
:100F40009DF8071002F00F0241EA022141601CBD2A
:100F50003801002002461521014803F001BB0000C2
:100F6000380100200B4602461521014803F05ABB08
:100F70003801002070B50A4D4FF40044002221468C
:100F8000284601F0FCF80A2000F046FF0122214625
:100F9000284601F0F4F8BDE87040642000F03CBF42
:100FA000000002400321E520FFF7DCBFFFF7E2BFAE
:100FB00000B50B4602464979581E085C2B2806D01E
:100FC0002D280ED02A2816D02F281ED026E0107DDE
:100FD00002EB800010ED020A50ED010A70EE200ACB
:100FE0001CE0107D02EB800010ED020A50ED010ABA
:100FF00070EE600A12E0107D02EB800010ED020A34
:1010000050ED010A60EE200A08E0107D02EB80003E
:1010100010ED020A10ED011AC0EE010A104604F0AC
:10102000F7FD104604F0F4FDB0EE600A104604F03F
:1010300001FE18465DF804EB05F00DBD114D124F91
:10104000124E00244FF4FA782878B8B13C802C7006
:1010500000F074F840B104F009FF8068B04203D09A
:101060000B4804F00FFF09E000F068F830B904F015
:10107000FDFE8068B04201D104F0AAFE404624F093
:10108000CDFEE1E706000020980700206C0200205A
:10109000600200207FB504F0E9FE80681E498842A6
:1010A00036D11E4D02A8296888471D489DF80D209D
:1010B000194C01788A4208D002701AA1684606F0DD
:1010C0007FFA694660691CF0C5F918489DF80C2044
:1010D00001788A4208D0027012A1684606F070FAC0
:1010E000694620691CF0B6F9A86A8047104D014690
:1010F0002870401E63280CD8606815F020FA2A7802
:101100000CA1684606F05CFA6946E0681CF0A2F99A
:101110007FBD002028707FBD6C02002044010020AC
:10112000C50400202530326400000000C404002003
:10113000C90400202532642525000000042101484F
:1011400001F010B800000240014800F0F3BC0000BC
:10115000640A0020014800F0EDBC0000540B0020A0
:10116000014800F0E7BC0000B40B00200168182320
:10117000CAB2103AB2FBF3F2054B6FF30901032A2E
:101180009B5CC36500D9091D816508467047000056
:10119000AC09030810B5014600208B698A6A4FF03C
:1011A000C07453B1B3F5005F15D072B1012A0CD0F1
:1011B000022A0AD0032A09D104E01AB1012A06D072
:1011C000022A03D1C96AC90100D5012010BDC96A2C
:1011D000A142FAD010BD002AF7D0012AF2D0022A8B
:1011E000F3D0032AF3D010BD30B50468256825F488
:1011F00080252560046863608368402B036803D002
:1012000099600068C26030BD9A600068C16030BDFE
:101210000EB5264E264C00258DF8085001230022DD
:1012200002A9306824F036FE78BB94F835008DF8BA
:10123000000020480222102100788DF80100684645
:1012400005F0E1FA002201A91B4801F09DFC0322F0
:101250002021684605F0C2FA9DF800009DF80610AE
:10126000884216D094F8300010B9A16C002088474D
:101270009DF806008DF800008DF802508DF80150A1
:1012800003222021684605F0BEFA642024F0C6FD42
:10129000C2E7606C80479DF806108DF800108DF84D
:1012A0000200000A8DF80100EAE70000EC070020C8
:1012B0004401002040030020EC090020704708B5DD
:1012C0000A200BF08BF96A4602210020FFF798FDF7
:1012D0009DF80000552803D19DF80100AA2821D0CF
:1012E00055208DF80000AA208DF801000A200BF08F
:1012F00075F96A4602210020FFF78EFD002000905C
:101300000A200BF06BF96A4602210020FFF778FDF6
:101310009DF80000552803D19DF80100AA2801D0AE
:10132000012008BD002008BDFFF758BD10B52920D9
:1013300000F00CF84FF6FF7101EA0024282000F0BD
:1013400005F8204310BD0020AFF3008002462421A1
:10135000014803F005B90000B40000200B46024626
:101360002421014803F05EB9B400002010B5052423
:1013700004E0642000F050FD641EE4B2FFF7E3FFD8
:10138000362802D0002CF4D106E02CB10021012037
:10139000FFF7E4FF002010BD012010BD10B50524AB
:1013A00004E0642000F038FD641EE4B2FFF7CBFFD8
:1013B000362802D0002CF4D106E02CB108210120FF
:1013C000FFF7CCFF002010BD012010BD38B5194833
:1013D0000524016841F002010160006800F002008C
:1013E0000090154802F073FF04E0642000F014FD43
:1013F000641EE4B2FFF7A7FF362802D0002CF4D118
:1014000016E0ACB100210120FFF7A8FF0021082061
:10141000FFF7A4FF7F210A20FFF7A0FF47210D203F
:10142000FFF79CFF00210E20FFF798FF002038BD3A
:10143000012038BD30380240B400002002490120AC
:101440004870000300F092BD040000200249012012
:101450008870042000F08ABD04000020102000F0F5
:1014600085BD202000F082BD7CB50F4C0F4DB4F837
:1014700062005A3400EB8000400001B2A8681AF004
:101480005DFE22890AA1684606F09AF86946286935
:101490001BF0E0FF228807A1684606F091F8694634
:1014A000E8691BF0D7FF7CBD4401002098020020B2
:1014B0003A2564003A25646D000000007CB5104CAC
:1014C000104D002214F84D1F686815F094FA6178E9
:1014D0000022A86815F08FFA22780BA1684606F062
:1014E0006FF86946E8681BF0B5FF627806A16846A8
:1014F00006F066F8694628691BF0ACFF7CBD000069
:1015000044010020D80300202564000072B6FEE7E5
:101510002DE9F0411A4F002507F124003D803C469B
:1015200087F8745014210646FEF70FFF15A060637C
:1015300014A0A06413A0E06513A020670020A41CE1
:10154000002104EBC00200BF22F81150491CC9B2AF
:101550000429F9D3401CC0B20428F1D3204609F075
:10156000D7FB204609F0D4FBB91C30462EF02AF8F0
:10157000064831468068BDE8F04115F015BE000010
:10158000FC7900200A000000000000000004002098
:10159000054900200A5C0AB100207047401C80B257
:1015A0001028F7D301207047747A002010B500206E
:1015B0000F4A01461154401CC0B21128FAD3002032
:1015C0001318401CC0B283F864101028F8D3FF2011
:1015D00002F8740F102150700822054814F014FA14
:1015E0000349BDE8104001F114002DF0C7BF000011
:1015F000747A002070B5022004F050FF05460120E7
:1016000004F04CFF0446002004F048FF44EA0021A7
:1016100045EA0120010201D540F07F4070BD70B560
:10162000052004F03BFF0546042004F037FF044684
:10163000032004F033FF44EA002145EA01200102BF
:1016400001D540F07F4070BD78B50024009490F83B
:101650003C20012A19D0012280F83C200A68072387
:101660000568092A13D9EE680A3A02EB4202934050
:101670009E43EE600B788A680A3B03EB43039A4073
:101680000368DD682A43DA6010E0022078BD2E6925
:1016900002EB420293409E432E610B788A6803EB73
:1016A00043039A4003681D692A431A614A681F234D
:1016B000072A13D205686E6B521E02EB820293401A
:1016C0009E436E630A8893B20A79521E02EB82022D
:1016D00093400268556B2B43536327E005680D2A3E
:1016E00012D22E6BD21F02EB820293409E432E63D6
:1016F0000B790A88DB1F92B203EB83039A400368DD
:101700001D6B2A431A6311E0EE6A0D3A02EB820266
:1017100093409E43EE620B790A880D3B92B203EB35
:1017200083039A400368DD6A2A43DA621B4B05682B
:10173000194A9D420AD10D68122D07D1556825F42A
:1017400000055560556845F48005556005689D4263
:101750001DD1134D0B68AB4201D0112B17D153682B
:1017600023F480035360536843F400035360096813
:10177000A9420CD10B490C4A0968B1FBF2F101EB0B
:101780008101490000E0491E00910029FBD180F849
:101790003C40002078BD00000023014000200140B3
:1017A000120000101800002040420F000068C06CBA
:1017B000704770B504004FF0000503D0206C002680
:1017C00010B107E0012070BD204600F01DF86664EE
:1017D00084F83C60206CC00610D4206C20F4885043
:1017E00040F0020020642046FFF7F4F86664206CA5
:1017F00020F0020040F00100206400E0012584F8A0
:101800003C60284670BD000010B586B00446142127
:101810006846FEF79AFD1149206888421CD110489D
:101820000021026842F480720260006800F4807057
:1018300005900B481438026842F00102026000680B
:1018400000F001000590022000900320CDE9010185
:101850006946044800F096FB06B010BD0020014028
:1018600044380240000002402DE9F041044600687F
:101870000D4681684FF0000749050BD58068C0050B
:1018800008D5206C40F02000206484F83C700120D2
:10189000BDE8F08100F078FC064613E0681C11D02A
:1018A00025B100F071FC801BA8420BD920680068AC
:1018B000800707D4206C40F00400206484F83C705A
:1018C0000320E5E7206800688007E7D521686FF00E
:1018D00012000860206C40F4007020642068816869
:1018E00011F0405F13D1217E89B9C16A11F4700FE4
:1018F00002D0806840050AD4206C20F480702064F7
:10190000206CC00403D4206C40F00100206400204F
:10191000BEE7000018B50021009190F83C20012A94
:1019200007D0012280F83C2002689368DB0702D0D0
:1019300011E0022018BD936843F001039360244A2C
:10194000244B1268B2FBF3F202EB420200E0521E9B
:101950000092002AFBD102689368DB072ED0036C4B
:1019600040F20164A34343F48073036453685B054E
:1019700005D5036C23F4005343F480530364036CD4
:10198000DB0404D5436C23F00603436400E04164A8
:1019900080F83C1010496FF022031360496800681A
:1019A000C90602D00D49884210D1816811F0405F0C
:1019B0000CD1816841F08041816007E0016C41F009
:1019C00010010164416C41F001014164002018BD27
:1019D0001800002040420F00002301400020014079
:1019E00090F83C1001290CD0012180F83C100168CE
:1019F0008A6822F001028A6001688968C90702D0FA
:101A000007E002207047016C21F4885141F0010188
:101A10000164002180F83C10084670472DE9F04130
:101A20000446876D00F0B0FB064694F835000025AB
:101A3000022806D08020606584F834500120BDE87B
:101A4000F0812068016821F0160101602068416979
:101A500021F080014161206C08B9A06C20B12068A0
:101A6000016821F0080101602068016821F001018E
:101A700001600CE000F088FB801B052807D92020BE
:101A80006065032084F8350084F83450D7E7206877
:101A90000068C007EED194F85C103F208840B86021
:101AA000012084F8350084F834500020C7E790F80E
:101AB0003510022903D0802141650120704705219E
:101AC00080F835100068016821F0010101600020F4
:101AD000704770B504002BD094F83500022826D04A
:101AE0002068016821F0010101602068002505607F
:101AF00020684560206885602068C56020680561B1
:101B00002168212048612046FFF730FBE56325640A
:101B10006564A564E564256594F85C203F219140E7
:101B20008160656584F8355084F83450002070BDBC
:101B3000012070BD2DE9F84304464FF00009CDF8AF
:101B4000009063484FF41651A56D0068B0FBF1F7A3
:101B50002E6894F85C10082000FA01F131420FD091
:101B600021680A6852070BD50A6822F004020A604D
:101B700094F85C108840A860606D40F001006065DA
:101B800094F85C104FF0010808FA01F0304208D0D8
:101B900021684969090604D5A860606D40F002001B
:101BA000606594F85C1004208840304208D02168B9
:101BB0000968890704D5A860606D40F0040060657D
:101BC00094F85C1010208840304218D021680968D1
:101BD000090714D5A86020680168490304D5006886
:101BE000000308D5A16C07E00168C90503D40168AA
:101BF00021F008010160216C09B12046884794F862
:101C00005C1020208840304231D021680968C90624
:101C10002DD5A86094F8350005282068016806D005
:101C2000490347D5006800031DD4616C1CE021F016
:101C3000160101602068416921F080014161206C3A
:101C400008B9A06C20B12068016821F0080101608A
:101C500094F85C103F208840A86084F8358084F8B0
:101C60003490216D1FE0E16B09B120468847606D1B
:101C700000282BD0606DC00714D0052084F83500F3
:101C80002068016821F0010101600098401C00906B
:101C9000B84203D820680068C007F6D184F83580C0
:101CA00084F83490E16C002910D001B02046BDE8E2
:101CB000F04308470168C905D5D4016821F0100137
:101CC000016084F8358084F83490CCE7BDE8F8836F
:101CD000180000202DE9F041044600F055FA0646B0
:101CE0005CB1022084F83500002584F83450206867
:101CF000016821F0010101600DE00120BDE8F081E3
:101D000000F042FA801B052805D9202060650320D9
:101D100084F83500F2E720680068C007F0D1226837
:101D2000116820480140D4E901031843D4E903367F
:101D30003343184363691843A3691843E36918439D
:101D4000236A18430843616A042903D1D4E90B13B9
:101D500019430843106020684069666A20F0070153
:101D600030460E43012704280CD1A06A0643E06ADE
:101D700040B12046FFF70EFA20B14020606584F89C
:101D80003570BAE7206846612046FFF7EFF994F80E
:101D90005C203F2191408160656584F835700020AA
:101DA000ACE700003F8010F02DE9F0410446866D5D
:101DB00090F83400002501280DD0012084F834006B
:101DC00094F835700020012F07D084F834000225E4
:101DD0002846BDE8F0810220FBE7022784F8357031
:101DE00060652046FFF700FA94F85C103F208840B9
:101DF000B0602068016841F016010160206C20B1DC
:101E00002068016841F0080101602068016841F024
:101E100001010160DCE7000070B5044600F0B4F990
:101E20000546601C02D004480078044400F0ACF978
:101E3000401BA042FAD370BD0C0000202DE9F04FEA
:101E40000022DFF808B101264FF00F0906FA02F46C
:101E500001EA0403A34274D122F003075F44D7F8D8
:101E6000088895074FEA157C09FA0CFA0AEA080572
:101E7000DFF8DC80404502D14FF000081DE0DFF8BC
:101E8000D480404502D14FF0010816E0DFF8C88049
:101E9000404502D14FF002080FE0DFF8C080404516
:101EA00002D14FF0030808E0DFF8B480404502D1CA
:101EB0004FF0040801E04FF0070808FA0CF8A845B5
:101EC00022D1284DD5F800C02CEA030CC5F800C07B
:101ED0002D1DD5F800C02CEA030CC5F800C0214D1B
:101EE0000C35D5F800C02CEA030CC5F800C02D1F36
:101EF000D5F800C02CEA030CC5F800C0D7F8085884
:101F000025EA0A05C7F80858056857000323BB40AF
:101F10009D430560D50800EB8505D5F820C057071F
:101F20004FEAD76809FA08F72CEA070CC5F820C071
:101F3000C5689D43C5604568A543456084689C436A
:101F40008460521C102A81D3BDE8F08F003001401C
:101F5000000002400004024000080240000C024061
:101F600000100240003C014070470000044910B5D9
:101F70000A68024202D00860FFF7F6FF10BD0000B9
:101F8000143C01402DE9F84FDFF8B8A100220124EC
:101F900003254FF00F090AF1040BAAF1040E00BF4C
:101FA0000B6804FA02F63340B34273D10F7907F09D
:101FB0000307012F01D0022F16D187684FEA42088C
:101FC00005FA08FC27EA0C07D1F80CC00CFA08FC4B
:101FD0004CEA070CC0F808C04768B7430E79C6F34F
:101FE000001696403E4346600E79F643B6070DD084
:101FF000C768560005FA06FC27EA0C07D1F808C0A6
:102000000CFA06FC4CEA070CC0F80CC00E7906F07E
:102010000306022E10D1D60800EB8608D8F82060FF
:1020200057074FEAD76C09FA0CF7BE430F6907FA56
:102030000CF73743C8F8207006684FEA420C05FADF
:102040000CF7BE430F7907F0030707FA0CF7374385
:1020500007604E6816F4403F6DD03B4E376847F43A
:1020600080473760366822F0030706F48046009602
:10207000364E07EB060CDCF8086897073F0F09FAA5
:1020800007F826EA0806DFF8C880404503D14FF07C
:1020900000081EE04FE0DFF8BC80404502D14FF061
:1020A000010816E0DFF8B080404502D14FF0020889
:1020B0000FE0DFF8A880404502D14FF0030808E0A8
:1020C000DFF89C80404502D14FF0040801E04FF05A
:1020D000070808FA07F848EA0608CCF80888DAF88A
:1020E00000605746D1F804C09E435FEACC2C00D56F
:1020F0001E433E60DBF800605F46D1F804C09E439B
:102100005FEA8C2C00D51E433E60DEF80060774607
:10211000D1F804C09E435FEA8C3C00D51E433E606C
:10212000084F083F3E68D1F804C09E435FEACC3CAC
:1021300000D51E433E60521C102AFFF431AFBDE8AB
:10214000F88F0000083C0140443802400030014054
:10215000000002400004024000080240000C02405F
:10216000001002400069084000D001207047426919
:1021700021EA02030A4043EA0241816170470AB141
:10218000816170470904FBE70148806870470000DF
:102190000C00002002488168027811448160704779
:1021A0000C0000200B4810B5016841F4007101607B
:1021B000016841F480610160016841F4807101604F
:1021C000032000F0A9F80F2000F006F800F04AF80C
:1021D000002010BD003C024030B505461C4887B0C9
:1021E0000024016841F001010160006806A900F0C7
:1021F0000100009001A800F003FA00F031FA15493F
:10220000154AB0FBF1F11548491E026040F2E73271
:10221000C0E90324C0E90114846101F06BF80400F3
:1022200012D10E4801F094F804000DD1192000F0ED
:1022300046F8102D07D200222946192000F04CF84C
:102240000748056000E0012407B0204630BD0000CB
:102250004438024040420F0000000140300C002092
:10226000100000200C4882B0016841F480410160F8
:10227000006800F4804000900748001F016841F0AA
:10228000805101600068002200F0805000900F2112
:10229000901E02B000F020B84438024000280DDB48
:1022A00000F01F02012191404009800000F1E02070
:1022B000C0F88011BFF34F8FBFF36F8F70470028B6
:1022C00009DB00F01F02012191404009800000F16C
:1022D000E020C0F800117047F0B40E4B1B680C46AC
:1022E000C3F30223C3F10705042D00D90425191DEA
:1022F000072901D2002300E0DB1E012606FA05F1C2
:10230000491E214099409E40761E16403143F0BC44
:1023100005F07DB90CED00E0064900F00702086801
:102320004FF6FF03184040EA0220034A10430860BA
:10233000704700000CED00E00000FA050C4A13683D
:1023400023F00303034313600A48026842F00402C7
:102350000260012909D0032901D040BF20BF20BF5E
:10236000016821F004010160704730BFF8E7000008
:102370000070004010ED00E02DE9F84304460068CD
:102380004FF00109C1074FF0000601D1400729D5E0
:10239000DFF82081C8F86860FFF7F6FE0746464D73
:1023A00005E000BFFFF7F0FEC01B022859D82868DF
:1023B0000001F7D4A068217B800140EA01706168C8
:1023C00008433D4984310860C8F86890FFF7DCFE97
:1023D000074604E0FFF7D8FEC01B022841D8286852
:1023E0000001F7D52078800752D533484030016886
:1023F00041F0805101600068304D00F08050009045
:10240000286840F480702860FFF7BEFE074604E0AD
:10241000FFF7BAFEC01B022823D82868C005F7D5ED
:10242000254D7035286810F4407020D0218A01F4C1
:10243000407181421BD02868214920F44070C1F8C6
:1024400000900E6028602868C00710D0FFF79CFE3F
:10245000064641F2883707E0FFF796FE801BB84238
:1024600002D90320BDE8F88328688007F4D52169E4
:102470001148C1F301220830032A12D0016821F467
:10248000F81101602868218AC1F30B010843286014
:102490002078000703D50B49207DC1F8E00100201A
:1024A000E0E70268084B22F4F81219400A43026080
:1024B000E8E700000000474200380240007000409A
:1024C000400E474200104742FFFCFF0F2DE9F04746
:1024D0000E46050065D0DFF81481D8F80000F7B289
:1024E00000F00700B04207D288F80070D8F800006A
:1024F00000F00700B04254D128683D4C810712D546
:10250000400703D5206840F4E05020602878000799
:1025100003D5206840F4604020602068A96820F05E
:10252000F000084320602878C0072DD03049686843
:102530000839012812D0022813D0032811D00968C5
:10254000890700292DDA216821F003010143216068
:10255000FFF71AFE814641F2883A0EE009688903C6
:10256000EFE709688901ECE7FFF70EFEA0EB090130
:10257000514502D90320BDE8F0872068696800F062
:102580000C00B0EB810FEFD1D8F80010404601F0FD
:102590000701B14207D90770006800F00700B04298
:1025A00001D00120E7E72878400705D52068E968D1
:1025B00020F4E050084320602878000706D5206802
:1025C000296920F4604040EAC100206000F058F81A
:1025D0002168084AC1F30311515CC84006490860EC
:1025E00006480068FFF7F8FD0020C4E7003C024001
:1025F00008380240B4090308180000201000002029
:102600000F2202600C4A136803F00303436013684F
:1026100003F0F0038360136803F4E053C3601268AF
:102620004FF4E05303EAD20202610448006800F06C
:10263000070008607047000008380240003C024074
:102640000448054900680968044AC1F38221515CC5
:10265000C84070471800002008380240C409030829
:102660000448054900680968044AC1F34231515CD5
:10267000C84070471800002008380240C409030809
:10268000154810B5006810F00C02144813D0144916
:10269000042A0FD0082A0ED10F4C241F2268236869
:1026A00002F03F025B0207D52068C0F38810A0FB50
:1026B000010106E0084610BD2168C1F38811A1FBA5
:1026C00000010023FDF7E4FD2168C1F30141491C2D
:1026D0004900B0FBF1F010BD083802400024F400BE
:1026E00040787D012DE9F84F04006ED02078DFF8A6
:1026F0004C93C007A9F104054AD009F10400016810
:10270000C1F38101012908D00068C0F381000228CB
:102710000AD1D9F80000400206D52868800337D5D1
:1027200060680028E1D033E06068B0F5803F10D0E9
:10273000B0F5A02F286810D020F4803028602868D9
:1027400020F4802028606068A8B1FFF71DFD0646D0
:102750000DE0286840F48030F4E740F480202860E1
:10276000F7E700BFFFF710FD801B642873D82868C7
:102770008003F7D50CE0FFF707FD064605E000BF34
:10278000FFF702FD801B6428F0D828688003F7D487
:102790002078DFF8AC8280074FF0000A3ED5A748CA
:1027A000001D016811F00C0F08D00068C0F3810013
:1027B00002280BD1D9F80000400207D4286880070E
:1027C00016D5E068012800D112E033E1E068B8B125
:1027D0000120C8F80000FFF7D7FC064605E000BF5F
:1027E000FFF7D2FC801B0228C0D828688007F7D5E5
:1027F0002868216920F0F80040EAC10028600DE057
:10280000C8F800A0FFF7C0FC064604E0FFF7BCFCD8
:10281000801B02281FD828688007F7D4207800077B
:1028200022D5864F87486169703771B101210160F7
:10283000FFF7AAFC064604E0FFF7A6FC801B02286F
:1028400009D838688007F7D50EE0C0F800A0FFF778
:102850009BFC064605E082E0FFF796FC801B022801
:102860007DD838688007F7D42078400768D5DFF82E
:10287000CCB100270BF13C0BDBF80000C0000BD4FF
:10288000DBF8001041F08051CBF80010DBF80000BD
:10289000012700F0805000906B4E3068C00510D4C6
:1028A000306840F480703060FFF76EFC009005E007
:1028B000FFF76AFC0099401A022850D83068C0051A
:1028C000F6D55E4EA0686C3601280FD0052830681A
:1028D00010D020F001003060306820F0040030603B
:1028E000A068B8B1FFF750FC00900FE0306840F0EE
:1028F0000100F4E740F004003060F7E7FFF744FC24
:102900000099411A41F28830814266D830688007C8
:10291000F4D50EE0FFF738FC009007E0FFF734FC39
:102920000099411A41F28830814256D830688007B8
:10293000F4D42FB1DBF8001021F08051CBF8001057
:10294000A069C8B33D49091D0968C1F38101022985
:102950004AD00228504607D0C8F8600000E03CE0AA
:10296000FFF712FC04463BE04746C8F86000FFF75B
:102970000BFC064605E000BFFFF706FC801B0228A3
:102980002BD828688001F7D4D4E907010843A16A4D
:102990002E4A490802EB0141626A41EA821108436A
:1029A00094F82C1040EA0161C9F800100120386643
:1029B000FFF7EAFB044606E03EE000BFFFF7E4FB5A
:1029C000001B022809D828688001F7D534E000BF31
:1029D000FFF7DAFB001B022802D90320BDE8F88FBD
:1029E00028688001F4D427E00128F7D0D9F8000046
:1029F000E26900F4800191421CD1226A00F03F019B
:102A0000914217D147F6C071626A0140B1EB821F53
:102A100010D1A26A4FF0FF3300F4403103EB5202B1
:102A2000B1EB024F06D194F82C1000F07060B0EBBF
:102A3000016F01D00120D1E70020CFE70438024028
:102A400000004742800E4742007000400000FFFF38
:102A50002DE9F84389463D494FF4FA4C4FF47A7317
:102A60000F68B7FBFCF159430091017F012965D044
:102A700001250577022141770368CA21596203685D
:102A80005321596201688B684FF0FF045FEA435895
:102A90004FF000034FF003060CD500BFDDF80080B7
:102AA000B8F10108CDF800804AD0D1F80C805FEA77
:102AB0004878F3D4D1F8088028F48068C1F80880F9
:102AC0000168D1F80C8008F0800868F49068C1F8BB
:102AD0000C80B7FBFCF14FF47A77794300910168E1
:102AE000009F7F1E00972BD0CF687F07F8D58E6898
:102AF00026F007068E6001688E6816438E600268B5
:102B0000C2F8149012490A6842F480020A6010491F
:102B100008310A6842F480020A6001688A6842F457
:102B200080428A6001688A6842F480628A60016833
:102B30004C62457703770020BDE8F8830220FBE76D
:102B40004C62467703770320F6E700001800002068
:102B5000003C01407047000010B50A4904464FF49C
:102B6000800008602068C168490508D5C16801F087
:102B7000800161F49061C1602046FFF7EBFF012006
:102B8000607710BD143C014010B500680B464168E9
:102B90000D480140080CD870C1F304245C7001F0AA
:102BA0003F049C70C1F34231197052B903F0CAFA64
:102BB000D870587803F0C6FA5870987803F0C2FAC3
:102BC0009870002010BD00003FFFFF0010B50B46BD
:102BD0000168896A596001680969C1F30E01996049
:102BE000006801680D480140C1F305401870C1F349
:102BF00006245C7001F07F049C70890DD97052B975
:102C000003F0A0FA1870587803F09CFA587098787E
:102C100003F098FA9870002010BD00007F7F7F00BD
:102C200010B5040002D0607F10B106E0012010BD95
:102C300000202077204600F041F8022060772068CD
:102C4000C168C943C90632D5CA21416221685320EF
:102C50004862204603F08AFA20BB20688168164A41
:102C6000114081602168886862681043D4E90423B8
:102C70001A43104388602168E06808612068016990
:102C8000228941EA02410161204603F093FA48B9E2
:102C900021680A6C22F480220A6421680A6CA36904
:102CA0001A430A642268FF21516208B110BD002056
:102CB0000121617710BD0000BFFF8FFF10B586B006
:102CC000044618216846FDF740FB0D4920688842FC
:102CD00014D102200090C00104906846FFF74CFB1D
:102CE00008B1FEF713FC0749012008600022052106
:102CF0000320FFF7F1FA0320FFF7E1FA06B010BD59
:102D0000002800403C0E474270B50446007F0B4649
:102D1000012819D00126267702206077B2B1987871
:102D2000D97840EA014558781978000240EA4130E4
:102D300005432168CA204862216853204862204622
:102D400003F014FAD0B122E0022070BD5878C10619
:102D500003D500F0EF000A305870D87803F0FBF983
:102D60000204587803F0F7F942EA0022987803F059
:102D7000F2F90243187842EA4035DAE7074805409D
:102D800020684560204603F015FA00B9667722688E
:102D9000FF2151620021217770BD00003FFFFF003D
:102DA0002DE9F0410446007F0D46012823D04FF065
:102DB000010884F81C800220607720680027806862
:102DC0004FEA4060D2B1002800DBEF70A878297884
:102DD00040EA01466878E978000240EA81500643FB
:102DE0002168CA204862216853204862204603F0C7
:102DF000BDF9B8B12CE00220BDE8F081002800DB6D
:102E0000EF70287803F0A7F90204687803F0A3F9BB
:102E100042EA0022A87803F09EF90243E87842EAE9
:102E20008056DDE70D48064020680660206881680E
:102E300021F480218160D5E90301084321688A6873
:102E400010438860204603F0B5F908B984F81D8066
:102E50002268FF2151622777CEE700007F7F7F0045
:102E600070B504460B482168C860FFF78DF9054628
:102E70004FF47A7607E000BFFFF786F9401BB042B7
:102E800001D9032070BD2068C0688006F4D50020F9
:102E900070BD00005F3F0100704770B5040009D0AD
:102EA000606A002540B125616561A56294F8510012
:102EB00040B10CE0012070BD6068B0F5827FF4D0B5
:102EC000E561F2E784F85050204600F045F8022012
:102ED00084F851002068016821F040010160A08859
:102EE000218900F4827001F404410843A18901F4AE
:102EF00000610843217C01F002010843217D01F0BB
:102F000001010843218B01F400710843217F01F086
:102F10003801084394F8201001F080010843218D06
:102F200001F40051084321680860A069042101EA06
:102F3000104094F8241001F0100108432168486003
:102F40002068C16921F40061C1616565012084F8D0
:102F50005100002070BD000070B586B006461421F7
:102F60006846FDF7F2F92049306888423AD11F4897
:102F70000025016841F480510160006800F4805030
:102F800005901A481438016841F002010160006898
:102F9000694600F002000590282000900220CDE94B
:102FA000010503200390052004901148FEF7EAFF75
:102FB000114C104820604FF0806060604020C4E9F0
:102FC000020500012061400060618000C4E906053F
:102FD000256220466562FEF77DFE08B1FEF796FA8F
:102FE000B464A66306B070BD0030014044380240AE
:102FF0000004024040640240640A00202DE9F84FBA
:10300000984616468A460446FFF7BEF8814694F86D
:10301000510001281ED1BAF1000F73D0002E71D0DB
:1030200094F85000012815D0012784F8507003202F
:1030300084F8510000256565C4F830A0A686E686B0
:10304000A563A587E58765642564A068B0F5004F92
:1030500003D00CE00220BDE8F88F2068016821F061
:10306000400101602068016841F4804101602068EE
:103070000168490603D4016841F040010160E0683D
:10308000B0F5006F606803D048B3012E27D047E049
:1030900008B1012E1FD1206B21680088C86006E0AE
:1030A00020688168890709D5216B0988C160206B78
:1030B000801C2063E08E401EE0860CE0FFF764F881
:1030C000A0EB0901414503D3B8F1FF3F03D035E040
:1030D000B8F1000F32D0E08E0028E1D123E0206B60
:1030E00021680078087306E02068816889070AD59E
:1030F000216B09780173206B401C2063E08E401E19
:10310000E0860DE02BE0FFF73FF8A0EB0901414519
:1031100003D3B8F1FF3F03D010E0B8F1000F0DD09A
:10312000E08E0028E0D14A464146204603F022F9CD
:1031300008B120206065A06830B109E084F85170C2
:1031400084F85050032086E72068C16880680090AA
:1031500084F8517004F8505F60680028F3D00120B3
:1031600079E7000070B5044690F8510001281CD1A1
:10317000C9B1C2B194F85000012816D0012084F8DA
:103180005000032084F85100002565652163A28664
:10319000E286A56365642564A587E587A068B0F528
:1031A000004F04D00DE0012070BD022070BD2068EA
:1031B000016821F0400101602068016841F480410C
:1031C0000160A16C17480864A16C1748C863A16C22
:1031D0001648C864A06C0565E38E2268216B0C322A
:1031E000A06CFEF7E1FD30B1606D40F0100060654D
:1031F00084F85050D7E720680168490603D4016875
:1032000041F04001016084F850502068416841F06D
:10321000200141602068416841F0020141600020C6
:1032200070BD0000056300080F630008E36200083A
:10323000704770474FF0E0210428086903D020F060
:1032400004000861704740F00400FAE710B5401E22
:10325000B0F1807F01D3012010BD4FF0E024606108
:103260000F21601704F0D3F90020A061072020612E
:10327000002010BD7047704770B590F83C20012ABF
:103280002CD0012480F83C40022280F83D200368C5
:103290005A689D6822F070060A6832435A60104BE3
:1032A00002689A420ED0B2F1804F0BD00D4B9A4279
:1032B00008D00D4B9A4205D00C4B9A4202D00C4BD1
:1032C0009A4204D1496825F080031943916080F83F
:1032D0003D40002180F83C10084670BD022070BDC2
:1032E000000001400004004000080040000C0040C5
:1032F0000040014010B5040003D094F83D0010B127
:1033000007E0012010BD002084F83C00204600F0BA
:103310001EF8022084F83D00211D206803F048FCBF
:10332000012084F8460084F83E0084F83F0084F8C9
:10333000400084F8410084F8420084F8430084F897
:10334000440084F8450084F83D00002010BD70471B
:1033500090F83D10012901D001207047022180F82A
:103360003D100168CA6842F00102CA6000680E4957
:1033700088420ED0B0F1804F0BD00C49884208D063
:103380000B49884205D00B49884202D00A4988423D
:1033900004D1816801F00701062903D0016841F0DA
:1033A000010101600020704700000140000400405E
:1033B00000080040000C00400040014070472DE92B
:1033C000F04104460068C66805694FF00007A90788
:1033D00013D5B10711D5F91E0161012020772068AE
:1033E00080698007204602D0FFF7E8FF04E000F084
:1033F000A7F8204600F04CF92777680716D5700724
:1034000014D521686FF0040008610220207720683D
:10341000806910F4407F204602D0FFF7CFFF04E020
:1034200000F08EF8204600F033F92777280715D5ED
:10343000300713D521686FF0080008610420207759
:103440002068C0698007204602D0FFF7B7FF04E07C
:1034500000F076F8204600F01BF92777E80616D52D
:10346000F00614D521686FF010000861082020775D
:103470002068C06910F4407F204602D0FFF79EFF0D
:1034800004E000F05DF8204600F002F92777E80735
:1034900008D0F00706D021686FF0010008612046CF
:1034A00000F050F9280608D5300606D521686FF0DF
:1034B000800008612046FFF7DDFE680608D570062B
:1034C00006D521686FF040000861204600F044F9FD
:1034D000A8060AD5B00608D521686FF0200008615B
:1034E0002046BDE8F041FFF7C6BEBDE8F081000010
:1034F00010B586B0044614216846FCF726FF0D4936
:103500002068884214D10C480021026842F002026F
:103510000260006800F00200059001200090022087
:10352000CDE90101CDE9031069460448FEF72AFD03
:1035300006B010BD000400403038024000040240D4
:10354000704770B5044690F83C0000260D460128EF
:103550000FD0012084F83C006AB1042A1DD0082A4B
:103560002FD00C2A3FD00126002084F83C003046A2
:1035700070BD022070BD206803F078FB206881696F
:1035800041F0080181612068816921F004018161B5
:10359000206881692A69114311E0206803F08EFBDD
:1035A0002068816941F4006181612068816921F4AA
:1035B00080618161206881692A6941EA0221816113
:1035C000D2E7206803F0A6FB2068C16941F008013A
:1035D000C1612068C16921F00401C1612068C1692D
:1035E0002A69114311E0206803F0C0FB2068C1691B
:1035F00041F40061C1612068C16921F48061C16149
:103600002068C1692A6941EA0221C161ACE710B5AD
:10361000040003D094F83D0010B107E0012010BD74
:10362000002084F83C00204600F01EF8022084F8B8
:103630003D00211D206803F0BBFA012084F84600FC
:1036400084F83E0084F83F0084F8400084F841008C
:1036500084F8420084F8430084F8440084F845006C
:1036600084F83D00002010BD08B500680649884276
:1036700008D10648016841F002010160006800F0CD
:103680000200009008BD00000004004040380240E5
:103690007047000010B50446022249B104290ED03B
:1036A000082913D094F84100012816D0012010BD3C
:1036B00094F83E000128F9D184F83E200FE094F8F8
:1036C0003F000128F2D184F83F2008E094F8400040
:1036D0000128EBD184F8402001E084F84120012248
:1036E000206803F0B5FA12492068884203D1426C81
:1036F00042F400424264206888420ED0B0F1804F0C
:103700000BD00C49884208D00B49884205D00B49A0
:10371000884202D00A49884204D1816801F0070139
:10372000062903D0016841F001010160002010BDAD
:10373000000001400004004000080040000C004070
:103740000040014000680349884201D1FEF722BDD4
:1037500070470000000001407047704710B50446F4
:103760000068406994F84110C0F3C010212911D1BC
:1037700080B12068143050E8001F21F0800140E83B
:103780000012002AF5D1A06B08B1FEF747F92046D8
:1037900003F06BFC2068406994F84210C0F380107D
:1037A000222911D180B12068143050E8001F21F087
:1037B000400140E80012002AF5D1E06B08B1FEF7A5
:1037C0002DF9204603F02AFC002010BD70470000B0
:1037D000F8B5016804460868CA684B6910F00F0F15
:1037E0004FF0000559D003F0010602F490773743FB
:1037F00065D0C10705D0D10503D5616C41F0010149
:103800006164410705D5D90703D0616C41F002011D
:103810006164810705D5D90703D0616C41F00401CB
:103820006164010707D502F02001314303D0616CC8
:1038300041F008016164616C00293AD0800604D52A
:10384000900602D5204603F01EFC20684069616C9A
:10385000C0F38010090700D460B3204603F0DEFBFC
:1038600020684069400621D52068143050E8001FC8
:1038700021F0400140E80012002AF5D1E06BA8B128
:1038800072490165E06BFEF712F9002811D0E06B78
:10389000016D01B0BDE8F040084783060FD59306DF
:1038A0000DD52046BDE8F84003F0EDBB2046FFF7FC
:1038B0008DFFF8BD2046FFF789FF6564F8BD266BD4
:1038C0002023012E7ED1C6067CD5D6067AD508687F
:1038D0004868009048694FF0020640064DD5E26BFB
:1038E000106840684FF480770004000C3AD0A18D36
:1038F000814237D9E085D069B8422DD020680C309C
:1039000050E8001F21F4807140E80012002AF5D130
:103910002068143050E8001F21F0010140E8001237
:10392000002AF5D12068143050E8001F21F0400132
:1039300040E80012002AF5D184F84230256320685F
:103940000C3050E8001F21F0100140E80012002A5E
:10395000F5D1E06BFEF762F86663A08DE18D401A49
:1039600081B206E0A18D8142A8D1D069B842A5D12B
:1039700066632046FFF7F1FEF8BDA08DE18D401A89
:1039800081B2E08D0028F7D00029F5D020680C30F6
:1039900050E8002F22F4907240E80027002FF5D164
:1039A0002068143050E8002F22F0010240E8002780
:1039B000002FF5D184F84230256320680C3050E8A0
:1039C000002F00E006E022F0100240E80023002B68
:1039D000F3D1CDE705062BD5150629D594F841007E
:1039E0002128C9D1A068B0F5805F01D12069B0B1AC
:1039F000206A411C2162216800784860E08C401EEA
:103A00000004000CE084B7D12068C16821F0800177
:103A1000C1602068C16841F04001C160F8BD206A02
:103A20000088C0F308004860206A801C2062E5E737
:103A30004006F3D55006F1D5CA68204622F0400270
:103A4000CA6084F8413000F02BF9F8BD216F0008FE
:103A500070B5040004D094F84100002510B106E0D0
:103A6000012070BD84F84050204600F045F8242025
:103A700084F841002068C16821F40051C1602046EB
:103A800003F062FB2068016921F490410161206824
:103A9000416921F02A0141612068C16841F4005167
:103AA000C1606564202084F8410084F842006563A9
:103AB000002070BD10B5044600680C49884214D13E
:103AC0000B48016821F0100101604FF4C061094802
:103AD000FEF7B4F9E06BFDF7FCFFA06BFDF7F9FF13
:103AE000BDE810402520FEF7D9BB10BD00100140F5
:103AF00044380240000002402DE9F04186B00646FD
:103B000014216846FCF721FC30493068884259D1BD
:103B10002F480024016841F010010160006800F0A6
:103B2000100005902A481438016841F00101016035
:103B30000068694600F0010005904FF4C0600090F5
:103B40000220CDE9010403200390072004902148BE
:103B5000FEF718FA214D20484FF000672860C5E9AC
:103B600001744FF48068C5E903486C61AC61EC6195
:103B70002C6228466C62FEF7ADF808B1FDF7C6FC72
:103B8000F563AE63154D144860353030E5E8020743
:103B90004020A5E81101114845F814496030AC6196
:103BA000EC612C626C62FEF795F808B1FDF7AEFC93
:103BB000B563002205212520AE63FEF78DFB25208D
:103BC000FEF77DFB06B0BDE8F0810000001001406B
:103BD000443802400000024088640240540B002038
:103BE00090F84230202B01D00220704721B11AB149
:103BF0000023036303F02EBB01207047704770471A
:103C00002DE9F843044690F84100984616460D46C3
:103C1000202802D00220BDE8F88385B17EB10020C3
:103C20006064212084F84100FEF7AEFAA684814644
:103C3000E684A0682027B0F5805F02D003E0012071
:103C4000E9E7206910B12E4600250EE000260CE0C1
:103C50008021204603F04EFBA8B9C6B116F8010B2F
:103C600021684860E08C401EE084E08C4B464FF0B9
:103C70000002CDF800800028EAD14FF04001204634
:103C800003F038FB40B184F841700320C3E735F8F6
:103C9000020BC0F30800E3E784F841700020BAE7A4
:103CA0007047000008B50020184E194FDFF86480F7
:103CB000194C8DF8000000BF02F0D8F88068B042BF
:103CC0001FD1012300226946386822F041F9FDF72F
:103CD00065FB94F86C00A0B92BF08AFFFDF726FB7A
:103CE000D8F8001000F02EF8C5B22CF039FD94F889
:103CF0006D00A84205D0322D03D9782D01D284F869
:103D00006D50322022F08AF8D6E70000B40500207A
:103D1000E40700209C070020440100201CB5064851
:103D200006A190F86D20684603F04AFC04486946F5
:103D3000406819F08FFB1CBD440100202564000081
:103D4000B405002070B504460D462B4811F097FAD3
:103D500010B1294808F066FC2748203011F08FFA8E
:103D600018B12548203008F05DFC2348403011F0A0
:103D700086FA18B12048403008F054FC21461E480D
:103D80000EF010FA1C48294620300EF00BFA1A48A3
:103D90001A4CD0E9032191422CD38268914229D355
:103DA0004268914226D94269914223D38269914265
:103DB00020D3C06981421DD90F48A11C203002695F
:103DC0000888131AB3F5D57F14D3488092B20A80BD
:103DD000101A4EF6602191FBF0F1074840300EF0CA
:103DE000E1F905484030C16921B10721001D00F00B
:103DF0005FFA2070207870BD4C790020C000002050
:103E0000034A92F84C20002A01D1FCF78FBE70477C
:103E100044010020FCF772BE00F096BC00F09CBC90
:103E200000F0A2BC02F04ABB01F022BA01F074BA61
:103E3000FDF7CCBAFDF79ABA00F006BF08B500202E
:103E40000090054890F8300010B9684608F069FD08
:103E5000009880B208BD00004401002021F08AB91A
:103E6000044991F8301011B14FF0FF30704708F05D
:103E7000ADBD0000440100200249002081F835005A
:103E800070470000440100200249012081F83500FC
:103E9000704700004401002002F02AB802F0BCB8CC
:103EA00002F0AAB810B586B004001FD000226946FF
:103EB0000F48FEF78BFE002205A90D48FEF764FEB1
:103EC0009DF81700E0709DF8151061709DF81620A0
:103ED000A27014232BF06EFF20709DF8000020715B
:103EE0009DF8010060719DF80200A07106B010BD40
:103EF000EC09002002F074B902F08CB910B5012968
:103F000001D0022903D1401E0C31C0B2C9B21A241B
:103F1000491C11FB04F10A24B1FBF4F100EB900001
:103F200000EB930008441044594200EB4100401E4E
:103F300000E0C01D0028FCDB072190FBF1F201FB33
:103F4000120000B90720C0B210BDFEE71CB54FF447
:103F5000FA69704FDFF8C0810025704C2BF048FEE5
:103F6000002249466E48FEF773FD08B1FDF7CEFA10
:103F700019226C496748FFF733FE3868C16841F081
:103F80001001C16008216848FFF784FB08F010FBAE
:103F9000206A804700F0A0FC032606E0761E206D14
:103FA000F6B2804784F84C001EB194F84C0000280B
:103FB000F4D1032606E0761E606EF6B2804784F8E0
:103FC000600026B194F860000028F4D102E094F873
:103FD000600008B9A06E8047032606E0761EE06DFB
:103FE000F6B2804784F858001EB194F858000028B3
:103FF000F4D1032606E0761EA06BF6B2804784F863
:1040000030001EB194F830000028F4D1032606E0F9
:10401000761E206FF6B2804784F86C0026B194F8C3
:104020006C000028F4D102E010F0FF0F01D1606FA6
:104030008047FDF779F9FDF742F990BB0222102184
:10404000684602F0CBFB9DF8000008B1012804D1BE
:104050009DF8011031B1012904D084F8355088F859
:10406000005003E084F8350088F80010002201A910
:104070002B48FEF789FD03222021684602F0AEFBA3
:104080009DF800009DF8061088420AD19DF80100B5
:104090009DF8021041EA002094F8301009B908F0A8
:1040A00095FC20698047A0698047FCF7FBFEFCF780
:1040B00061FF00F0F3FC4FF48C7600213346F022D0
:1040C0000846009500F0A1FC0A2008F087FA32208B
:1040D00000F0BAFD24F04AFF40F6C41008F07EFA62
:1040E00000213346F0220846009500F08EFC18F0BF
:1040F000E5FA1DF063FC1DF085FC2BF015FA2CF0A1
:104100002FFB00202BF0A6FC4FF4FA7021F086FE66
:1041100024E700000C0B0020400300204401002095
:10412000EC090020140C0020C40A002070B586B0F1
:1041300001F09CFE8068534988427DD1524D68460B
:10414000296888474F4C9DF80520143C60788242CE
:1041500008D062704DA102A803F032FA02A9206AC9
:1041600019F078F99DF804202078824208D0227056
:1041700048A102A803F024FA02A9A06919F06AF97B
:10418000404E9DF80230E0789C36834214D0E370B4
:104190009DF800002071A2783FA102A803F010FA58
:1041A00002A9206B19F056F9207906EB800050F82F
:1041B000041C606B19F04EF99DF80120A078824232
:1041C00016D0A2709DF80230E3709DF800002071B7
:1041D00031A102A803F0F4F902A9206B19F03AF911
:1041E000207906EB800050F8041C606B19F032F95E
:1041F000297F607981420CD06171606A12F09FF969
:10420000627928A102A803F0DBF902A9E06A19F09B
:1042100021F96A8EA089824208D0A28123A102A836
:1042200003F0CEF902A9206C19F014F995F94D109C
:1042300094F90900814200E022E00DD06172A06C87
:1042400012F07DF994F9092018A102A803F0B8F939
:1042500002A9206D19F0FEF895F94E1094F90A00A4
:1042600081420DD0A172A06D12F069F994F90A2073
:104270000EA102A803F0A4F902A9E06D19F0EAF872
:1042800006B070BDD80400204401002025303264FF
:1042900000000000253264002532642D2530326490
:1042A0000000000025326425250000002564000080
:1042B00010B500231A4604E050F82240521C234453
:1042C000D2B28A42F8D3B3FBF1F0C0B210BD10B540
:1042D00086B0044614216846FCF737F82089009020
:1042E0000120019002900220039069462068FDF7AA
:1042F00049FE6089009069466068FDF743FE06B09C
:1043000010BD70B506460824002501F0B7FF13E084
:104310006806050E0021304601F09EFF022008F0DD
:104320006AF90121304601F097FF012008F063F996
:10433000304601F09AFF0543641EE4B2E8D2002142
:10434000304601F089FF304601F0B6FF284670BDC7
:1043500010B50446002101F0A6FF012008F04BF93A
:104360000121204601F078FF012008F044F90021E6
:10437000204601F071FFBDE81040012008F03BB974
:1043800070B50C460646082519E000BF01F064FF31
:10439000022008F030F904F08001304601F083FF7C
:1043A000012008F028F96006040E012008F023F926
:1043B0000121304601F050FF012008F01CF96D1E6C
:1043C000EDB24FF000013046E0D201F045FFBDE80C
:1043D0007040022008F00FB910B50446012101F029
:1043E00062FF012008F007F90121204601F034FFA7
:1043F000012008F000F90021204601F02DFFBDE862
:104400001040022008F0F7B810B50446012101F071
:104410004AFF022008F0EFF80121204601F01CFFBE
:10442000012008F0E8F80021204601F03CFF0120BF
:1044300008F0E1F80021204601F00EFFBDE8104031
:10444000012008F0D8B810B50446002101F004FF9F
:10445000022008F0D0F80021204601F024FF0120BE
:1044600008F0C9F80121204601F0F6FE012008F00D
:10447000C2F80121204601F016FFBDE810400120DE
:1044800008F0B9B870B50546052401F0F7FE012122
:10449000284601F0E1FE05E0641EA4B2012008F008
:1044A000AAF884B1284601F0E0FE0028F4D128469D
:1044B00001F002FF0021284601F0CEFE022008F0A4
:1044C0009AF8002070BD284601F0F6FE2846FFF756
:1044D000BAFF012070BD00002DE9F0411D461746CE
:1044E0000C468046069EFFF78FFF6006010E404691
:1044F000FFF746FF4046FFF7C5FF28B14046FFF7EC
:10450000A2FF0120BDE8F08139464046FFF738FFA1
:104510004046FFF7B7FF4046FFF776FF012000EB6C
:104520004400C1B24046FFF72BFF4046FFF7AAFF09
:1045300000246F1E0AE000BFFFF7E3FE3055BC42C7
:1045400002DA4046FFF704FF641CE4B2AC42404686
:10455000F2D3FFF741FF4046FFF775FF0020D1E798
:1045600070B516460C460546FFF74EFF6006010E75
:104570002846FFF705FF2846FFF784FF3146284607
:10458000FFF7FEFE2846FFF77DFF2846FFF73CFFBA
:10459000012000EB4400C1B22846FFF7F1FE284697
:1045A000FFF770FF2846FFF7ACFE04462846FFF7EA
:1045B00013FF2846FFF747FF204670BD2DE9F04165
:1045C0001D4617460C468046069EFFF71DFF6006F7
:1045D000010E4046FFF7D4FE4046FFF753FF28B1D7
:1045E0004046FFF730FF0120BDE8F08139464046E4
:1045F000FFF7C6FE4046FFF745FF002408E0315DA7
:104600004046FFF7BDFE4046FFF73CFF641CE4B2A6
:10461000AC42F4D34046FFF716FF012007F0EBFF52
:104620000020E1E72DE9F0411D4616460C460746FD
:10463000FFF7EAFE6006010E3846FFF7A1FE384696
:10464000FFF720FF28B13846FFF7FDFE0120BDE847
:10465000F08131463846FFF793FE3846FFF712FFE8
:1046600029463846FFF78CFE3846FFF70BFF3846E1
:10467000FFF7E9FE012007F0BEFF0020E7E700009A
:104680001CB50024114D124E124FDFF84C808DF8EE
:1046900000408DF80440012300226946286821F07B
:1046A000F9FB10B9052000F0CFFA0123002201A97F
:1046B000306821F0EFFB20B93C8098F8000000F052
:1046C000C3FA0A2021F0AAFBE5E70000DC0700207E
:1046D000E407002098070020CA04002038B5154CD4
:1046E000154900252088401C80B22080097801EB04
:1046F0008101B0EB410F08D110488DF80050012323
:1047000000226946006821F023FC0D4821880078CA
:1047100000EB8000B1EB400F0AD101208DF80000C2
:1047200003460848258000226946006821F010FCF5
:1047300038BD000098070020A8060020DC070020F4
:10474000A9060020E007002000224FF480710148F4
:10475000FDF715BD00000240012211020148FDF7DE
:104760000EBD00000000024070B586B014216846FE
:10477000FBF7EBFD0E480025016841F001010160E7
:1047800000680C4E00F001004FF4807405902A463A
:1047900021463046FDF7F3FC0121CDE90041CDE98A
:1047A000021569463046FDF7EDFB06B070BD00000E
:1047B00030380240000002402DE9F0410027244C2F
:1047C000DFF8908001253E4610B12570667001E04B
:1047D0002078E8B120214046FDF7C4FC20B110212B
:1047E0004046FDF7BFFC98B1032021F017FB2021C4
:1047F0004046FDF7B7FC00B9657010214046FDF753
:10480000B1FC10B10220607001E06078E0B1267068
:104810006078C8B120214046FDF7A4FCA0B110216A
:104820004046FDF79FFC78B9032021F0F7FA2021DC
:104830004046FDF797FC38B110214046FDF792FC49
:1048400010B92570677866703846BDE8F0810000C1
:10485000C6000020000002400EB500201A4FDFF80D
:104860006C801B4C1B4D8DF800008DF808008DF8F6
:10487000040001264FF002090020FFF79DFF0128E8
:1048800002D002281CD102E08DF800600CE001F09B
:10489000EDFA8068B84205D10123002202A9D8F8B8
:1048A00000000BE08DF8009001230022694620688B
:1048B00021F04EFB0123002201A9286821F048FBCA
:1048C000012021F0ABFAD7E7D8040020E007002050
:1048D000D8070020E407002030B587B014216846CF
:1048E000FBF733FD18480024016841F00101016025
:1048F0000068164D00F001000590202000904FF454
:10490000041001900120029069462846FDF73AFB09
:10491000102000904FF48810CDE901046946284624
:10492000FDF730FB002211461720FDF7D5FC1720BC
:10493000FDF7C5FC002211460A20FDF7CDFC0A2038
:10494000FDF7BDFC07B030BD30380240000002402A
:104950002DE9F04104461D4616460F462A2000F078
:1049600067FC204600F054FC304600F051FC2B2040
:1049700000F05EFC384600F04BFC284600F048FC96
:10498000BDE8F0412C2000F053BC0000024900209B
:104990000968C86370470000C40A002070B55D1A3A
:1049A000141A641C6D1C143314316C439BB289B20D
:1049B000049EFFF7CDFF0D4D4FF40060E8602868BE
:1049C000016841F400610160A2B231462846FEF759
:1049D000C9FB0748006841680029FCD10020E86055
:1049E0002868016821F40061016070BD0C0A002094
:1049F000640A002010B514460B460246FFF7A8FFD4
:104A00002046BDE8104000F003BC2DE9F047804689
:104A10001F4603F1130083B21646501E82B20C46A5
:104A200001F1140081B24046DDF82090FFF790FFBD
:104A30000AE0454604E0484600F0EAFB6D1CADB2D2
:104A4000B542F8D3641CA4B2BC42F2D3BDE8F087EF
:104A500030B587B014216846FBF777FC0D48016834
:104A600041F00201016000684FF4607400F0020040
:104A700005900120CDE900400320074D03906946D1
:104A80002846FDF77FFA012221462846FDF777FBED
:104A900007B030BD303802400004024010B5FFF7C7
:104AA000D7FF684C00224FF480712046FDF767FB6A
:104AB000002280212046FDF762FB642007F08EFD76
:104AC000012280212046FDF75AFB642007F086FD75
:104AD000112000F0ADFB782007F080FD362000F0BB
:104AE000A7FB002000F0BAFB3A2000F0A1FB052054
:104AF00000F0B4FBB22000F09BFB0C2000F0AEFBFA
:104B00000C2000F0ABFB002000F0A8FB332000F0ED
:104B1000A5FB332000F0A2FBB72000F089FB352075
:104B200000F09CFBBB2000F083FB192000F096FBFB
:104B3000C02000F07DFB2C2000F090FBC22000F094
:104B400077FB012000F08AFBC32000F071FB1220EC
:104B500000F084FBC42000F06BFB202000F07EFB03
:104B6000C62000F065FB0F2000F078FBD02000F09D
:104B70005FFBA42000F072FBA12000F06FFBE0209F
:104B800000F056FBD02000F069FB042000F066FB2B
:104B90000D2000F063FB112000F060FB132000F0FB
:104BA0005DFB2B2000F05AFB3F2000F057FB542008
:104BB00000F054FB4C2000F051FB182000F04EFB9D
:104BC0000D2000F04BFB0B2000F048FB1F2000F0F5
:104BD00045FB232000F042FBE12000F029FBD02020
:104BE00000F03CFB042000F039FB0C2000F036FB09
:104BF000112000F033FB132000F030FB2C2000F0DC
:104C00002DFB3F2000F02AFB442000F027FB512021
:104C100000F024FB2F2000F021FB1F2000F01EFBE2
:104C20001F2000F01BFB202000F018FB232000F0C9
:104C300015FB212000F0FCFABDE81040292000F00F
:104C4000F7BA000000040240411F5F2907D8044959
:104C50000968CA6A42436420B2FBF0F0C863704737
:104C6000C40A00202DE9FF4F81B00446DDF83C90D6
:104C700000904FEA59074FF00008780700D0012054
:104C800000EBD70000FB09FB203AD0B2039002985A
:104C900002994844401E83B2E019401E82B2204669
:104CA000FFF756FE002553E0B9F10C0F2AD0B9F1F9
:104CB000100F2ED0B9F1180F2ED0B9F1200F49D115
:104CC0002749039801EB8010002610F805A01098E2
:104CD00000284FF0010000FA06F000EA0A0022D096
:104CE00020B12046049A0299FFF784FE641C0098C4
:104CF000A4B2201AB84225D10298009C401C80B270
:104D0000029023E00398174900EB400001EB80007C
:104D1000DAE71549039803E00398144900EB4000D3
:104D200001EB0010D0E708B1049800E00E9800F005
:104D30006FFA08F10100C0B2B0FBF7F1804607FB43
:104D4000118050B1761CF6B2082EC0D36D1CADB2E6
:104D50005D45A9D305B0BDE8F08F4FF00008F5E739
:104D600000260308CC090308400E0308301403088A
:104D70002DE9FE4F9946DDE90D4615468A46074660
:104D8000DDF8308014E00C2C17D0102C20D0182C1B
:104D900029D0202C0FD1CDF80080CDE901464B461B
:104DA0002A465146384600F09BF9381987B2AD1CA7
:104DB00028780028E7D1BDE8FE8FCDF80080CDE946
:104DC00001464B462A465146384600F017F8ECE7B4
:104DD000CDF80080CDE901464B462A46514638467B
:104DE00000F088F8E1E7CDF80080CDE901464B46B8
:104DF0002A465146384600F0F7F8D6E72DE9FF4F2E
:104E000083B08046119D00904FF00009680700D0E4
:104E1000012000EBD50000FB05FB052000260290D9
:104E200006EB860000EBC6013148059A10F81130F8
:104E30001278934251D100EB4100019041780598DE
:104E40004078814249D1049804992844401E83B295
:104E500008EB0500401E82B24046FFF779FD0027AF
:104E600039E00198002400EB070A12989AF8021022
:104E700000284FF0010000FA04F001EA000115D00B
:104E800021B14046069A0499FFF7B4FD08F10100EC
:104E90001FFA80F80098A8EB0000A84215D10498EA
:104EA000DDF80080401C80B2049012E009B1069841
:104EB00000E0109800F0ACF909F10100C0B2B0FBBD
:104EC000F5F1814605FB119078B1641CE4B2082C21
:104ED000CBD37F1CFFB25F45C3D3761C0298B6B21A
:104EE00086429DD307B0BDE8F08F4FF00009F0E790
:104EF000C03D03082DE9FF4F83B08046119D00900F
:104F00004FF00009680700D0012000EBD50000FB3E
:104F100005FB1C20002602903248059A06EB06117C
:104F200010F811301278934250D100EB41000190FB
:104F3000417805984078814248D1049804992844E2
:104F4000401E83B208EB0500401E82B24046FFF7C8
:104F5000FFFC002738E00198002400EB070A1298B4
:104F60009AF8021000284FF0010000FA04F001EA5C
:104F7000000114D021B14046069A0499FFF73AFD8A
:104F800008F1010000991FFA80F8A8EB0100A8427F
:104F900014D104988846401C80B2049012E009B1F4
:104FA000069800E0109800F033F909F10100C0B252
:104FB000B0FBF5F1814605FB119078B1641CE4B2B9
:104FC000082CCCD37F1CFFB25F45C4D3761C02985B
:104FD000B6B28642A0D307B0BDE8F08F4FF000090B
:104FE000F0E70000423E03082DE9FF4F83B0804602
:104FF000119D00904FF00009680700D0012000EBE0
:10500000D50000FB05FB05200026029006EB86007C
:1050100000EB46113148059A10F81130127893428E
:1050200051D100EB410001904178059840788142D0
:1050300049D1049804992844401E83B208EB050026
:10504000401E82B24046FFF783FC002739E00198FA
:10505000002400EB070A12989AF8021000284FF07B
:10506000010000FA04F001EA000115D021B1404628
:10507000069A0499FFF7BEFC08F101001FFA80F8B8
:105080000098A8EB0000A84215D10498DDF8008034
:10509000401C80B2049012E009B1069800E010981C
:1050A00000F0B6F809F10100C0B2B0FBF5F181469D
:1050B00005FB119078B1641CE4B2082CCBD37F1CA3
:1050C000FFB25F45C3D3761C0298B6B286429DD329
:1050D00007B0BDE8F08F4FF00009F0E7FA41030890
:1050E0002DE9FF4F83B08046119D00904FF00009DD
:1050F000680700D0012000EBD50000FB05FB052070
:10510000002602903248059A06EB861110F81130FD
:105110001278934250D100EB4100019041780598FC
:105120004078814248D1049804992844401E83B2B3
:1051300008EB0500401E82B24046FFF709FC00273D
:1051400038E00198002400EB070A12989AF8021040
:1051500000284FF0010000FA04F001EA000114D029
:1051600021B14046069A0499FFF744FC08F101007A
:1051700000991FFA80F8A8EB0100A84214D1049806
:105180008846401C80B2049012E009B1069800E005
:10519000109800F03DF809F10100C0B2B0FBF5F144
:1051A000814605FB119078B1641CE4B2082CCCD385
:1051B0007F1CFFB25F45C4D3761C0298B6B286420C
:1051C000A0D307B0BDE8F08F4FF00009F0E7000072
:1051D0006C4303082DE9FE4F9946DDE90D6714463F
:1051E0008A460546DDF830800CE0CDF800804B465D
:1051F00051462846CDE90167FFF734FD05EB56001F
:1052000085B2641C2278002AEFD1BDE8FE8F000031
:1052100008B5010A8DF800108DF801000123022263
:1052200069460248FDF7EAFE08BD00000C0A0020AE
:1052300070B5094D06464FF40074002221462846F9
:10524000FCF79DFF304600F009F821462846BDE8EE
:1052500070400122FCF793BF0004024001B5012316
:105260001A4669460148FDF7C9FE08BD0C0A002030
:1052700038B527480024016841F002010160006848
:1052800000F0020000902348FFF721F810212320AE
:1052900000F0BEF80120FCF7BFFD2F21202000F018
:1052A000B7F80120FCF7B8FD202000F0A5F82F2862
:1052B00007D00A20FCF7B0FD641CE4B2032CE5D350
:1052C00024E00120FCF7A8FD00241021002000F0BC
:1052D0009FF80120FCF7A0FD8021012000F098F844
:1052E0000120FCF799FD0021022000F091F8012037
:1052F000FCF792FD022000F07FF8002807D00A207A
:10530000FCF78AFD641CE4B2032CDED3012038BD17
:1053100030380240C800002010B50321022000F000
:1053200077F80F21BDE81040202000F071B810B5CB
:105330000021022000F06CF82F21BDE81040202051
:1053400000F066B87CB514460D4606466A4606214E
:10535000282000F035F89DF801009DF8003043EA60
:10536000002333809DF8030001029DF802000843EA
:1053700028809DF8050001029DF804000843208064
:105380007CBD7CB514460D4606466A4606210320C0
:1053900000F016F89DF800009DF8013043EA002364
:1053A00033809DF8020001029DF80300084320802D
:1053B0009DF8040001029DF80500084328807CBD8B
:1053C0002DE9F04190460E460546192801D91927C6
:1053D00000E01E27002409E02819C2B2394605481A
:1053E000FFF7BEF808F80400641CE4B2B442F3D33B
:1053F000BDE8F081C8000020192801D9192100E07A
:105400001E2102460148FFF7ABB80000C80000208B
:105410000B46192801D9192100E01E210246014836
:10542000FFF700B9C800002038B50E4C0EA1684641
:10543000627802F0C5F86946206A18F00BF8A27885
:1054400009A1684602F0BCF86946A06A18F002F8A3
:10545000E27805A1684602F0B3F86946206B17F0C0
:10546000F9FF38BD600700202530326400000000DD
:1054700008B500200A4C8DF800004FF47A75002022
:1054800012F0EEFCA84205D200231A466946606C71
:1054900020F05EFD1EF02CFD012020F0BFFCEEE7A9
:1054A000A007002008B501261B4FDFF87090DFF839
:1054B00070A0DFF870801C4C00254FF4967B00BF75
:1054C00094F8350018B300F013F910B184F8346083
:1054D0001DE094F83400012817D184F8345000F00E
:1054E000C5FC8068B84209D000F0C0FC816849451D
:1054F00004D000F0BBFC8168514506D10123002295
:105500006946D8F8000020F023FD84F8345058464E
:1055100020F084FCD4E70000D8040020DC05002043
:10552000E8060020E007002044010020064882B081
:10553000016841F002010160006800F00200009083
:10554000024802B0FEF7C3BE30380240D40000204B
:105550007CB514460D4606466B4606223B21682064
:1055600000F048F800280BD1BDF8001049BA31808E
:10557000BDF8021049BA2980BDF8041049BA21804B
:105580007CBD3EB50C46054601AA694602A8FFF758
:10559000DFFFBDF8000010FB00F1BDF8040010FBB8
:1055A000001000EE100AB8EEC00A02F0BBFEBDF912
:1055B0000800F0EE400A00EE100AB8EEC01A81EEC4
:1055C000200A02F05DF9B1EE400A84ED000ABDF94F
:1055D000000000EE100ABDF90400F8EEC00A00EE6B
:1055E000100AB8EEC01A80EE810A02F049F985ED82
:1055F000000A3EBD2DE9F04106461D4614460F4601
:105600002048FEF701FF7006010E1E48FEF7B8FEA7
:105610001C48FEF737FF28B11A48FEF714FF012097
:10562000BDE8F08139461748FEF7AAFE1548FEF797
:1056300029FF1448FEF7E8FE012000EB4600C1B246
:105640001048FEF79DFE0F48FEF71CFF0BE00D48CB
:10565000012C0FD0FEF755FE28700A48FEF778FEA1
:10566000641EE4B26D1C002CF1D10648FEF7EBFE7F
:105670000020D5E7FEF745FE28700248FEF7ACFE95
:10568000EEE70000D40000202DE9F04104461E465C
:1056900015460F461548FEF7B7FE6006010E134883
:1056A000FEF76EFE1148FEF7EDFE80B939460F4851
:1056B000FEF766FE0D48FEF7E5FE00240FE0315DC3
:1056C0000A48FEF75DFE0948FEF7DCFE28B10748F0
:1056D000FEF7B9FE0120BDE8F081641CE4B2AC42E3
:1056E000EDD30248FEF7AFFE0020F4E7D40000201F
:1056F0001CB501A96846FFF744FF00984FF07C51A4
:1057000088420ADC4FF03F42904206D80198884216
:1057100003DC904201D801201CBD00201CBD00000C
:105720007FB5002415480094019402941249039413
:1057300001604FF48031C0E901140461047680F8FF
:1057400020400F49C0E90A140125C561C46080F8F2
:1057500030404561FCF72DF808B1FBF7D7FE009506
:10576000CDE9015469460548FBF76EFF002801D0DA
:10577000FBF7CCFE7FBD000000200140A409002003
:105780000100000F114808B5016841F48001016073
:105790000068002200F48000009005213A20FCF708
:1057A0009BFD3A20FCF78BFD002205214420FCF7ED
:1057B00093FD4420FCF783FD002205214620FCF7E1
:1057C0008BFDBDE808404620FCF779BD303802402B
:1057D00010B501F0EBFD044A0021044820F0ECFB79
:1057E0000349086010BD0000880903088D6800089F
:1057F0000000002070B5194886B00024016841F00F
:1058000004010160016801F004010591016841F0A3
:1058100001010160016801F001010591016841F099
:10582000020101600068142100F002000590684642
:10583000FAF78BFD0A4E4FF40055002229463046F8
:10584000FCF79DFC01200095CDE901046946304636
:105850000394FCF797FB06B070BD0000303802409F
:105860000008024010B586B014216846FAF76DFDB5
:105870002348002421490594C0E900147F21816058
:10588000FF21C0E9031444618461FDF7C9F908B13F
:10589000FBF73CFE11208DF8000059208DF8010027
:1058A00055208DF80200039401226946144804949F
:1058B000FDF776FA08B1FBF729FE07208DF81400F2
:1058C00005208DF8150021208DF8160023208DF875
:1058D0001700012205A90A48FDF716FA08B1FBF7DF
:1058E00015FE00224FF4FA610548FDF7B1F80028D3
:1058F00001D0FBF70BFE06B010BD000000280040F1
:10590000EC090020104810B50E4901604FF4827177
:105910004160002102228160C0E90312012242613C
:105920005202C0E906210162416281620A21C1621C
:10593000FDF7B3FA002803D0BDE81040FBF7E6BD41
:1059400010BD0000003001400C0A002010B58AB0E4
:10595000002407941C2168460894FAF7F6FC1648C0
:10596000144901606321C0E901144FF49671C0E944
:1059700003148461FDF74BFE08B1FBF7C7FD0794E4
:1059800007A90D480894FDF777FC08B1FBF7BEFDA9
:105990006020CDE900040294082269460648049478
:1059A000FDF7CFFD08B1FBF7B1FD0348FDF7A0FD02
:1059B0000AB010BD00040040C40A00200C4810B515
:1059C0000A4901604FF416514160002181600C22A8
:1059D000C160C0E904128161C161FEF739F8002895
:1059E00003D0BDE81040FBF791BD10BD0010014091
:1059F0000C0B0020FEE7000086B0464E00254FF459
:105A00007A77307800287DD0434835708DF804507F
:105A10000123002201A9006820F09AFA3F4940A022
:105A200001F0BEFD41A13D48FAF7A1FC78B140A1CB
:105A30003A48FAF79CFC70B140A13848FAF797FC55
:105A400080B13648FAF78CFC142847D058E03DA0C6
:105A500001F0A6FD54E000231A4601213BA001F00D
:105A60009FFD4DE03E4C0022211D3E48FDF7AEF863
:105A7000002221463B48FDF787F83B4890F84E103E
:105A8000217690F84D10617690F86D10A17690F81F
:105A90006E10E176408EA083A278617833A001F089
:105AA0007FFDA3796279217934A001F079FD94F921
:105AB000181038A001F074FD94F9191039A001F004
:105AC0006FFDA17E3CA001F06BFDE17E3FA001F0E7
:105AD00067FDA18B40A001F063FD11E002950395E5
